:020000041000EA
:1000000000B5324B212058609868022188439860DF
:10001000D860186158612E4B002199600221596106
:100020000121F02299502B49196001219960352056
:1000300000F044F80222904214D00621196600F024
:1000400034F8196E01211966002018661A6600F04E
:100050002CF8196E196E196E052000F02FF8012189
:100060000842F9D1002199601B49196000215960AB
:100070001A491B48016001219960EB211966A021F2
:10008000196600F012F800219960164914480160C1
:100090000121996001BC002800D000471248134993
:1000A000086003C880F30888084703B5996A0420EC
:1000B0000142FBD001200142F8D103BD02B5186610
:1000C0001866FFF7F2FF186E186E02BD00000240BE
:1000D000000000180000070000035F00212200005C
:1000E000F4000018222000A00001001008ED00E03C
:1000F00000000000000000000000000074B24E7A12
:1001000000200420F7010010C3010010C5010010F9
:10011000C1010010C1010010C1010010C101001097
:10012000C1010010C1010010C1010010C701001081
:10013000C1010010C1010010C9010010CB01001065
:10014000CD010010CD010010CD010010CD01001037
:10015000CD010010CD010010CD010010CD01001027
:10016000CD010010CD010010CD010010CD01001017
:10017000CD010010CD010010CD010010CD01001007
:10018000CD010010CD010010CD010010CD010010F7
:10019000CD010010CD010010CD010010CD010010E7
:1001A000CD010010CD010010CD010010CD010010D7
:1001B000CD010010CD010010CD010010CD010010C7
:1001C00000BE00BE00BE00BE00BE00BE00F04BF888
:1001D000103800BEF2EB8871404200105C42001003
:1001E0003402001090A31AE700202149086006C8D5
:1001F00081F3088810471F48006800282FD10DA4FC
:100200000ECC002902D000F012F8F9E71A491B4A77
:10021000002000E001C19142FCD1194988471949E9
:1002200088471949884700BEFDE701C901C29A42C3
:10023000FBD370475C420010C0000020F00C00208F
:100240008C4E001000000420000004208C4E001092
:1002500000100420001004200000000070470B482C
:1002600001F0D0FD0047EFF30580C0B270470000F9
:1002700008ED00E0000000D0F00C00200812002083
:10028000AD180010BD030010D5190010575600001E
:1002900006005250ABB36053F441001006005250B8
:1002A000861C030204420010060052505422A29DF4
:1002B0001842001005005250DE65F4688C4E0010A4
:1002C000F8B5C0460448054B10B5834203D0044B33
:1002D000002B00D0984710BDF00C0020F00C00203F
:1002E0000000000006480749091A8910CB0F591869
:1002F00010B5491003D0044B002B00D0984710BD17
:10030000F00C0020F00C00200000000010B5074C9D
:100310002378002B09D1FFF7D5FF054B002B02D026
:10032000044800E000BF0123237010BDF00D002041
:100330000000000028410010054B10B5002B03D031
:100340000449054800E000BFFFF7CCFF10BDC046E0
:1003500000000000F40D00202841001010B504003A
:100360001F2100F071F800222000002100F08EF81B
:100370000021200000F0A2F810BDC04670B50500B5
:1003800080260D4801F0D2FF00243602210028000B
:1003900002F0ECF84034042000F09EFDB442F5D1A8
:1003A0002100280002F0E2F8403C042000F094FD17
:1003B000002CF5D170BDC0462841001070B5D02486
:1003C0008025FA26AD042406192000F08BF865621A
:1003D00002F04CF81A20FFF7C1FF1B207600FFF750
:1003E000BDFF1C20FFF7BAFF02F0A2F930006561E3
:1003F00000F072FDA561114801F098FF0120FFF7A0
:10040000BDFF3000656100F067FDA5610C4801F09B
:100410008DFF0320FFF7B2FF3000656100F05CFD47
:10042000A561084801F082FF02F03CF830006561E8
:1004300000F052FDA561002070BDC046344100109F
:100440004C41001064410010094A83009446402248
:10045000634410B51C68C0006240C0241440802270
:10046000520113431C60034B9C466044416010BD25
:1004700004C0014000400140034BC0009C46604462
:1004800043681F2018407047004001400A4B80001D
:100490009C4604236044002901D00C230821002A33
:1004A00000D10B00026853400C221A4080235B01EC
:1004B000184302607047C04604C00140084B8000EA
:1004C0009C466044002905D080239B0118434023AB
:1004D00003607047C0239B01184340230360F8E783
:1004E00004C001400123D02283401206936293612D
:1004F000094A83009446402263441968C0004A4078
:10050000C02111408022520113431960034B9C46C5
:10051000052360444360704704C00140004001402F
:10052000F8B5EFF3108772B60D4E3368002BFCD090
:10053000BFF35F8F0725CB08C01801230D40AB40E8
:100540001D000478254007D123430370BFF35F8F5C
:10055000356087F31088F8BD100001F03DFAC04601
:100560002C0100D0024B18688007C00F7047C046AE
:1005700000C006400021044B044ABFF35F8F02C352
:100580009342FAD17047C046000100D0800100D0EC
:10059000044A1078431CDBB2172B00D910231370C8
:1005A0007047C046E403002001238340002904D0A3
:1005B000034A1360034A13607047034A1360FBE762
:1005C00080E200E000E100E080E100E0024B10305A
:1005D0009B688000C058704700ED00E070B50D00CA
:1005E000EFF3108672B60F4A1368002BFCD0BFF3EE
:1005F0005F8F0D4B10309B6884001B590B4A934250
:1006000003D09D4201D001F0FFF9074B9B681D51BB
:10061000BFF35F8FBFF35F8F0022024B1A6086F338
:10062000108870BD240100D000ED00E0CD01001065
:10063000F0B54546DE4657464E46E0B50D0083B060
:10064000EFF3108A72B65A4A1368002BFCD0BFF33E
:100650005F8F1022914681444A46564B96009B6814
:100660009C59554B98469C4205D0AC4216D0534FEE
:10067000E31B2F2B14D94F4B9B689C51BFF35F8F0B
:10068000BFF35F8F00224A4B1A608AF3108803B0D1
:100690003CBC90469946A246AB46F0BD1C00EAE73A
:1006A000012383409B465A46454B1B681A400092E3
:1006B0005A46444B1A60BFF35F8FFFF7D4FD019099
:1006C000002803D0814501D001F09EF901232200CA
:1006D00006219A43936851569D420AD152E04B003D
:1006E0005B1806219B00FB1898685956A8420FD04A
:1006F0001A000029F3DA009B002B05D05A46324B32
:100700001A602F4B1A60B6E75A462E4B1A60B2E7B2
:10071000002921DB4A00501880003D188046A86857
:100720009860E879D871062028569871002826DB51
:10073000AD88F81A6D052D1545444019E0250005D2
:10074000400D2D02284398805218204B9200BF186C
:100750001A781970BA71CEE70199002918D1002AC8
:1007600023D0FF3191711A49918018490A789A7102
:10077000184ADB1B5B415A43120D0A70BBE7BD20D0
:100780000002E0E713000029C4DA019A002A0CD025
:10079000114A1249D21A083A5002400D0143998079
:1007A0000F4952080A43DA80A5E74446DDE7C04610
:1007B000240100D000ED00E0CD010010E80300208E
:1007C00000E100E080E100E080E200E0FA0F0020BC
:1007D00000BDFFFFAAAA00002204002000F0FFFFD6
:1007E00000F8FFFFF8B5012504000543FFF73BFDC6
:1007F000EFF3108672B6214A1368002BFCD0BFF3CA
:100800005F8F1F4B1F4A2100C91A49414A43120DED
:100810001D4980008F6852B23F58AF421CD006215C
:10082000595691421CD012215956914222D01E2174
:100830005956914220D02A2159560320914210D076
:10084000124B19781A70A171BFF35F8F00220B4B06
:100850001A6086F31088F8BD8B680D491950EFE7D0
:1008600000204100091889005B18FF21997109498E
:100870009980E5E70120F4E70220F2E7240100D0A7
:10088000E8030020AAAA000000ED00E0FA0F002013
:10089000CD01001000BDFFFF054B064A1360064A5C
:1008A000136053609360D360136153619361704729
:1008B0008080808000E400E004E400E0024B9C467D
:1008C00061448900016070474000003483680B4830
:1008D00010B5844661446244090112019A185918FE
:1008E00054684B6801209C4201D802D00020C0B25D
:1008F00010BD12680B689A42F9D8F7E7FFFFFF0FA7
:100900000A4B1968EFF3108072B60A68002AFCD00F
:10091000BFF35F8F1B68BFF35F8F00221A6080F305
:10092000108840BF002000217047C046E40F00201F
:10093000F8B5454657464E46DE46E0B514000DAACA
:1009400012781D000CAB92461B78026881469046D7
:10095000002B13D1977B002F4AD040467E001268AF
:10096000F619033E921951783B008173002900D19A
:10097000C173002191705170117003E01F005E007F
:10098000F618033E2E4A94464A46926863449446BB
:100990001B010A9A63449A600B9A1C605D60DA60DE
:1009A000434600221B689B199A705A701A7043467E
:1009B0005B7B9B46002B2BD043463A0098685946F8
:1009C0005B6898475B4642465B005B44033B1268AA
:1009D000002814D0D31896195A46B2701A78002AF3
:1009E00000D072701F705A4643465A73BB4511D0EF
:1009F00038003CBC90469946A246AB46F8BDD31899
:100A000096199F703278002A00D05A705B46337076
:100A100043465F734B462200187D2B0000F06EFBAF
:100A2000041E07D05346002B04D14B4639001868EA
:100A300000F0E2FE0E9B002BDAD01C70D8E7C04617
:100A4000FFFFFF0FF0B5DE4657464E4645460023F2
:100A5000E0B58DB00A936D4B8200D45800239B46BD
:100A60000B9000F0B9FA6268EFF3108572B6136864
:100A7000002BFCD0BFF35F8F23689C465B7B9946BD
:100A8000002B00D16BE0A268614B90464B441B01E8
:100A9000984443461E685F6832003B00121A8B413F
:100AA000002B65DD3B0032000B9800F027FB002394
:100AB000002208920993002300279A466368BFF337
:100AC0005F8F5A461A6085F310885346002B08D171
:100AD0000028C6D10DB03CBC90469946A246AB4614
:100AE000F0BD0A9B390018024B461843D047626894
:100AF00006900791EFF3108872B656464546136884
:100B0000002BFCD0B246A846BFF35F8F0699079A28
:100B1000131E49DB194302D02369002B5FD12368E0
:100B2000DA7B002A07D051008A1819688C4649469A
:100B30006244033A51704A46DA73E2684B4694467F
:100B4000013B63441A7801321A705B462361636883
:100B5000BFF35F8F5A461A6088F3108881E700233D
:100B6000002208920993002300279A460020A5E757
:100B7000002B01D1002A95D10021604600F05EFDD6
:100B800043461A685B680892099343469B689A46F5
:100B90004346DF68E3684B44013B1B780A931B0222
:100BA00003432361002089E72369002BB7D0089D08
:100BB000099E6D1A96412A003300089D099E9E42A7
:100BC00018D81BD05946049101210391494602913E
:100BD0005146019700912000FFF7AAFEB5E700F00B
:100BE000FBF9069A079B12184B41994202D8E9D1AA
:100BF0009042E7D901225242D317E3E70899914284
:100C0000E0D901225242D317DCE7C046C80F0020CA
:100C1000FFFFFF0F10B5124C6368002B04D00A21B0
:100C20001048FFF74BFE10BD23000F4A102120682B
:100C300000F026FB032000F0C3F9032000F0D2FAF5
:100C40000A49032000F014FAFFF7A2FC084B9C4667
:100C5000032360442375074B80006060DC60DEE79F
:100C600030040020E40F0020CD080010450A0010D9
:100C700040000034C80F0020F0B557464546DE4618
:100C80004E46E0B585B00092019310AB1B7800276B
:100C90000393002380469A4643465A68EFF310892F
:100CA00072B61368002BFCD0BFF35F8F43461D68FC
:100CB000AC7B002C4FD0660036192B68033E9B1985
:100CC0005A78AA73002A00D1EA7342469F705F7077
:100CD0001F7092684E4B94460099019AE3181B01CD
:100CE000634419605A600E9A9A600F9ADA602B6812
:100CF0009B199F705F701F706B7B9B46002B42D0CF
:100D000022001900A8686B6898475B465B005B444B
:100D1000033B2A6800282DD0D31896195A46B27082
:100D20001A78002A00D072701C705B466B735C45A9
:100D30002AD04346DB681B19013B187843465B68A1
:100D4000BFF35F8F1F6089F310885346002B2AD1B1
:100D50000002204307E05B68BFF35F8F1C6089F3EC
:100D600010880120404205B03CBC90469946A246FE
:100D7000AB46F0BDD31896199C703278002A00D08B
:100D80005A705B4633706C734346187D009A019B22
:100D900000F0B4F982460028CBD043462100186801
:100DA00000F02AFDC5E7039B002B2FD00E9B0F9967
:100DB0000020984703000B4328D004000D1E0DDAD5
:100DC0000098019902000B00121BAB41994213D805
:100DD00018D000920193039B9A465DE700F0FCF85F
:100DE00024184D4123002C0000930194A94203D8FC
:100DF000F1D1009B9842EED901235B42DC170093AE
:100E00000194E8E700999142E3D9F5E70020AAE7C9
:100E1000FFFFFF0FF0B504000D0006267642F7171E
:100E2000C64636196F4100B584B08F4214D811D030
:100E300000F0D2F832003B00121A8B41002B15DC77
:100E4000002B3ED02000290000F002F904B004BCC1
:100E50009046F0BD8642EBD90026002700F0BCF892
:100E600032003B00121A8B41002BE9DD0023029374
:100E70000193154B3200009314483B00FFF7FCFE32
:100E80000028DFDB00239846BC46114A114F7B6ADD
:100E90009C4504D8B96AB142D4D29C45D2D11168DC
:100EA000EFF3108072B60B68002BFCD0BFF35F8F9E
:100EB0001368BFF35F8F4146196080F3108820BF2D
:100EC000E5E7002ABED0D1E7010900103004002078
:100ED000E40F00200040054070B5060000F07CF8EB
:100EE000FA2204000D00920000233000002101F0DE
:100EF00079F8001969418D4205D802D0FFF78AFFC1
:100F000070BD8442FAD901204042C117F6E7C046BD
:100F1000F0B5C64600B5EFF305833F221340180035
:100F20001038EFF3108772B61F4D2A68002AFCD0E4
:100F3000BFF35F8F012211008140884644461B4960
:100F40004C631B4C2678A4463400C440224015D084
:100F50004C6A1849820051588C4217D3164BD2580C
:100F600043469E4363461E70BFF35F8F00232B6092
:100F700087F31088002A06D0904704E0BFF35F8F04
:100F80002A6087F3108804BC9046F0BD0B4A9B0092
:100F9000944663441A681A60BFF35F8F00232B6086
:100FA00087F31088EFE7C046280100D000400540D5
:100FB000FB0F0020E80F0020400E0020D03F05402E
:100FC00010B50100024A0348FFF7AAFA10BDC04657
:100FD00078410010F90F0020044A516A00E019001E
:100FE000906A536A9942FAD17047C0460040054062
:100FF000164A70B5546A00E01C00956A536AA34211
:10100000FAD12A0023008018594105000E008C42B5
:1010100002D819D1824217D9012201256D42EE175B
:1010200052420A4C636A9342FCD39A420BD1074B5B
:101030002800996AA94203D305E0996A814202D245
:10104000596A9142F9D070BD3200EAE7004005408C
:10105000064A536A9942FCD807D1044B02E05A6A07
:10106000914202D19A6A8242F9D37047004005400A
:1010700070B504000D00EFF3108672B61A4A1368BB
:10108000002BFCD0BFF35F8F002D1BD02000FFF79B
:101090009DFA164988420AD02000FFF79FFA0121E5
:1010A0002000FFF781FA0123A340114A1360114B7E
:1010B000A400E550BFF35F8F00220B4B1A6086F34C
:1010C000108870BD0B4BA200D5500122A2400A49E6
:1010D00020000B7893430B700449FFF7A9FA002115
:1010E0002000FFF761FAE5E7280100D0110F00109A
:1010F00038600540400E0020FB0F0020F0B5D646BA
:101100004F464646324CC0B5656A00E00D00A66AFF
:10111000616AA942FAD1AB4209D806D00124200065
:101120001CBC90469946A246F0BDB242F6D9EFF3F8
:10113000108972B6274C21680029FCD0BFF35F8F5D
:101140000126254986408C460978244D0F003743F7
:101150008846F9B28A46614654460C701C49041D03
:10116000A4004E636250840063510D6A002435422E
:101170001AD04D6A00E025008F6A4C6AAC42FAD161
:10118000AB4219D801D1BA4216D8C2451DD0104B76
:10119000134A1E625E631F2318401E3B8340136088
:1011A0006346424601241A70BFF35F8F0022094B49
:1011B0001A6089F31088B2E70024BFF35F8F002222
:1011C000044B1A6089F31088A9E70124ECE7C046B4
:1011D00000400540280100D0FB0F0020E80F002050
:1011E00080E200E010B5EFF3108472B60A490B6894
:1011F000002BFCD0BFF35F8F01238340074A0848D0
:10120000136202789A430270BFF35F8F00230B6072
:1012100084F3108810BDC046280100D0004005406E
:10122000FB0F002070B506000D00140000291ED031
:10123000002A1ED073688068984763006A001B19F3
:101240005219033B033A3168002808D0CB188A189A
:101250009D70117800290ED11470280008E08A18BA
:10126000CB1894701978002900D051701D7020009F
:1012700070BD0800FCE7597028001470F8E7C046FC
:10128000F0B5DE4657464E464546E0B5836000233E
:1012900089B04260026806914373C9B20133059177
:1012A00001738373C1730492012900D8A4E00A007A
:1012B0004B1ED9B2931E0791072B00D8AEE0002534
:1012C000CB080393049B564C591C564B56489B46DF
:1012D000564B9A46564B9C46564B02935246634693
:1012E0005F465E4662401A40504B2740FB185A400A
:1012F0000640534601966646434033404B4E0A70C3
:10130000B046019E0135B146C844464673401604B6
:10131000360ECE701602120E4A721A04120E0B739B
:10132000CA731A021B0E4B75029B360E5C40634655
:101330001C40404B120E9846029B4744584063465F
:1013400018404B4643445840039BEDB28E718A745B
:101350007C401831AB42C1D1079907230A009A4358
:10136000531CDBB2914247D0049C5A00A446D218C9
:10137000591C6244059DC9B2033A51708D423BD954
:101380004A005218981C6244C0B2033A5070854219
:1013900032D942001218D91C6244C9B2033A5170C2
:1013A0008D4229D94A005218181D6244C0B2033A2E
:1013B0005070854220D942001218591D6244C9B2AA
:1013C000033A51708D4217D94A005218981D624451
:1013D000C0B2033A507085420ED942001218D91D8E
:1013E0006244C9B2033A51708D4205D94A0052187D
:1013F0006244033A08335370FF23069A134059009E
:10140000C918049B9C460023614403394B7009B002
:101410003CBC90469946A246AB46F0BD0123A3E7EB
:10142000010203047F7F7F7F050607080101010198
:10143000808080800808080870B50400002907D063
:101440004B0000685B18033BC3185A78002A01D18F
:10145000080070BD5500AD18033D401900254678C1
:1014600045705D702000FFF7DDFE310005002000B3
:10147000FFF7E2FF290002002000FFF7D3FE010082
:10148000E6E7C046F0B54E464546DE465746E0B56F
:101490000E0074000168A41985B0033C01920A197A
:1014A0000500107800284CD043001B18033BCB18D4
:1014B0005F78BC46002F16D1019C002C3ED0EC7BFF
:1014C000002C04D063001B19CB18033B5E70EE7335
:1014D00000282FD10023537005B03CBC904699469C
:1014E000A246AB46F0BD7A006244033A89184A78B6
:1014F000934600224A7090465A7001003A00280034
:10150000FFF790FE5B468146002B07D05B00296801
:101510005B44033BCB185A78002A16D15A464946F9
:101520002800FFF77FFE2968019B0A19002BC6D10E
:101530000028CFD043001B18033BCB180021997023
:10154000C8E7019B002BBAD1C4E7500080180338CC
:101550000918487882464046487058705946280015
:10156000FFF760FE53468346002B07D05B002968D7
:101570005344033BCB185A78002A06D159465246A9
:101580002800FFF74FFE8346C8E750008018033855
:10159000091840464F784870587051462800029705
:1015A000FFF740FE8246002F08D0BC467B0029682A
:1015B0006344033BCB185A78002A06D15146029A5D
:1015C0002800FFF72FFE8246D8E750008018033826
:1015D000091840464F7848705870029928000397C0
:1015E000FFF720FE8046002F08D0BC467B0029680C
:1015F0006344033BCB185A78002A06D1039A41462C
:101600002800FFF70FFE0290D8E70320504303386D
:10161000091800204F784870587003992800FFF788
:1016200001FE390002902800FFF706FF0299020030
:101630002800FFF7F7FD0390E0E7C046F0B54E46FF
:101640004546DE465746E0B5467B05007400006817
:10165000A419033C85B002190191117800294ED0DC
:101660004B005B18033BC3185F78BC46002F18D1B2
:10167000019C002C40D0EC7B002C04D063001B1993
:10168000C318033B5E70EE73002931D10023300094
:101690005370697305B03CBC90469946A246AB4670
:1016A000F0BD7A006244033A8018427893460022E3
:1016B000427090465A7028003A00FFF7B3FD5B462F
:1016C0008146002B07D05B0029685B44033BCB18A5
:1016D0005A78002A17D15A4649462800FFF7A2FD3A
:1016E000019B010028680219002BC4D10029CDD02C
:1016F0004B005B18033BC31800209870C6E7019BA2
:10170000002BB8D1C2E75000801803380918487878
:10171000824640464870587059462800FFF782FDBF
:1017200053468346002B07D05B0029685344033B94
:10173000CB185A78002A06D1594652462800FFF79E
:1017400071FD8346C7E750008018033809184046EA
:101750004F7848705870514628000297FFF762FD95
:101760008246002F08D0BC467B0029686344033BB7
:10177000CB185A78002A06D15146029A2800FFF762
:1017800051FD8246D8E750008018033809184046BA
:101790004F7848705870029928000397FFF742FD70
:1017A0008046002F08D0BC467B0029686344033B79
:1017B000CB185A78002A06D1039A41462800FFF731
:1017C00031FD0290D8E70320504303380918002068
:1017D0004F784870587003992800FFF723FD3900AF
:1017E00002902800FFF728FE029902002800FFF768
:1017F00019FD0390E0E7C04670B5040000292CD025
:10180000437B8B422ED005684800401803382818C7
:101810008278002A21D053009B18033BEB181A78DA
:101820008A4202D11BE0002A08D053009B18033BD8
:10183000EB185A788A42F6D142785A700023012276
:10184000837043702000FFF71DFE617B02002000C3
:10185000FFF7E8FC6073012000E0002070BD4278D3
:101860001A70EBE701221900FFF70CFE60730120EC
:10187000F4E7C04610B50400FEF78AFE0100200020
:10188000FFF71CF8FF232371BFF35F8F10BDC04625
:1018900010B50400FEF77CFE01002000FFF70EF8F3
:1018A000FF23A380BFF35F8F10BDC0462D4B2E4A90
:1018B00070B51A602D4A2E4B2E491A6010008B68A5
:1018C0009843FBD12C4C2D4B9C4209D2013B1D1B54
:1018D000AD080135AD002D1908CC9847AC42FBD1BD
:1018E00000F098F8264A224B1A60224A9368DB01DE
:1018F0008033FBD14022234B234D24489A675A67FB
:101900001A67DA66A84205D30EE0FFF7C1FF200090
:10191000AC4209D2040003680834002BF5D1FFF76C
:10192000A9FF2000AC42F5D3194C1A4DA168C02282
:10193000280000F0C9FBA560FEF71CFEFEF7ACFF17
:10194000FFF768F9144C154B9C4209D2013B1D1B53
:10195000AD080135AD002D1908CC9847A542FBD143
:1019600070BDC04600E00040BFCDFBFEFE7F3C00E6
:1019700000F0004000C00040D80C0020E80C00201F
:10198000FFFFFF0100F00140D80C0020C80C002030
:1019900000ED00E000000020E80C0020F00C00202A
:1019A000094A1368002B06D008491818884208D83D
:1019B000106018007047064B0449181813608842DD
:1019C000F6D901235B42F4E7C00F00200000042099
:1019D0000812002000BEFDE70FB400B5084883B030
:1019E00000F0A4FC049B002B07D005A9180001916E
:1019F00000F0E8F9034800F099FC00BEFDE7C0469E
:101A0000A84100103842001010B50148FFF7E4FF6C
:101A10009C41001030B50C2083B000F0AFF9FEF708
:101A2000A1FD00280ED0944B944A1A605A609A6027
:101A3000DA601A615A619A61DA611A62904A5A62EE
:101A400003B030BD8F4CA06700F0A0F901228E4B8F
:101A50001A60636C012BFCD103228C4B1A60894AFB
:101A6000936B012BFCD101330093894A043301218C
:101A7000884800F02FF90523874A00930121874801
:101A800000F028F9864B5A68FF2A02D880225200BB
:101A90005A608022784C7D4B21691201804D1A607A
:101AA000002905D0606900F003FA01300138FDD14A
:101AB000E0217B4B02201A681140802252012A4308
:101AC00011601968484003210140116004219A689F
:101AD0001142FCD08022802192012A430901116029
:101AE000802252005A606F4B23616F4B5968FF2967
:101AF00000D85A6003226C48634B01211A6002002F
:101B000093681942FCD0E02513681D4080235B01D7
:101B100003431D6012684A400321114019600221ED
:101B2000614A93681942FCD0802380219B010343C2
:101B30000901196080215D4B4900516063615C4B74
:101B40005A68FF2A00D8596080225A4BE169120175
:101B5000574D1A60002905D0606900F0A9F90130DD
:101B60000138FDD1E02252490B681A4080235B0105
:101B70002B431A60802380229B012B4312011A60A1
:101B800080223E4B52004A60E3614B4B5968FF296B
:101B900000D85A608022494B216A1201464D1A60D2
:101BA000002905D0606900F083F901300138FDD1CA
:101BB000E02241490B681A4080235B012B431A60E5
:101BC000802380229B012B4312011A6080235B003B
:101BD0004B602A4B3A4A23623A4B5968914201D8EA
:101BE00001325A608022384B616A1201354D1A6009
:101BF000002905D0606900F05BF901300138FDD1A2
:101C0000E02230490B681A4080235B012B431A60A5
:101C1000802380229B012B4312011A608023DB0268
:101C20004B60174B6362294B5A68FF2A02D8802207
:101C300052005A608022264BA1691201234D1A607E
:101C4000002905D0606900F033F901300138FDD179
:101C5000E0221E490B681A4080235B012B431A6067
:101C6000802380229B012B4312011A6080235B009A
:101C70004B600E4BA361E3E6500F0020006CDC02CA
:101C80001BB70000008000403CB0004030B0004076
:101C9000002F685900800240008C864700C0024037
:101CA00030800040001BB7003C8000404059730763
:101CB0005480004054B000406080004060B000405C
:101CC000FFFF03006C8000406CB000404880004083
:101CD00048B00040F8B504000C201E0017000D00AD
:101CE00000F0E6F84201121A9101891AC900091898
:101CF0008901380000F0DCF8069B226836041B03DB
:101D00003343002A21DB194A194EA21851424A4195
:101D1000802149018C4652420A40164962440A60B9
:101D200015490A601700B1688F43FBD1C021221DFD
:101D30008901114321222560A0600A602268002ADF
:101D4000FCDAE36008230B60F8BD3F2221680A40FB
:101D5000AA42D8D1A2681205120D8242D3D1EE2137
:101D6000E268C9020A409A42CDD1EDE70040FDBFCA
:101D700000C0004000E0004000F000408023024A24
:101D80009B000343D362704700800540AA23064AA4
:101D90001B0113602F230549D360054B196053685D
:101DA000002BFCDA7047C0460040024000B0FA0049
:101DB0000060024010B5002800D110BD00F064FAA8
:101DC000FBE7C04610B5094A84B01468002C09D05E
:101DD000012200910300524203A90548A0470120B7
:101DE00004B010BD00F0A2FA0020F9E7C40F0020F3
:101DF000B51D001001480421014B18476004002064
:101E0000251E0010142310B50100188804331B8808
:101E1000984710BD162310B50100188802331B889F
:101E2000984710BDF0B5C64600B5002916D014235A
:101E30000400012598461827890046184346216862
:101E400018883B88984701C4431E9841404205408A
:101E5000A642F3D1280004BC9046F0BD0125F9E765
:101E6000124A936F9B0815D29066D166002905D05F
:101E7000FFE7FFE7FFE7516F106F704704B5802160
:101E80000906C2175140002800D0C84302F02CF9BF
:101E9000002104BDF0B5146E556E576F166FFFF735
:101EA000E3FF1466556657671667F0BD000000D063
:101EB000114A936F9B0813D210665166002905D012
:101EC000FFE7FFE7FFE7516F106F704704B5002889
:101ED00001D00020C04302F007F9002104BDC04634
:101EE000F0B5146E556E576F166FFFF7E5FF146669
:101EF000556657671667F0BD000000D0132370B514
:101F00001D78012D15D010DD2648FFF783FF264CE4
:101F100001008022200000F0D7F8022D06D02348CF
:101F2000FFF770FF224B186070BD1F4C214AA2645E
:101F3000F5E71D4C1F4AA3085B421D402FD02B0024
:101F400022602020A9006118451B0A604A608A604F
:101F5000CA600A614A618A61CA610A624A628A6227
:101F6000CA620A634A638A63CA630A644A648A6407
:101F7000CA640A654A658A65CA650A664A668A66E7
:101F8000CA660A674A676D08102D03D18A67CA6757
:101F9000A264C4E71E339B00E250A264BFE70023A3
:101FA000CFE7C04653440000FC0F00204C33000034
:101FB000E00F0020B91F001007B5604601880A0A2B
:101FC0000230DF2AFAD1C9B2820804D302884088DD
:101FD0000004104300E00068014A5050039007BD20
:101FE000FC0F002051434343C9188C46110C83B2A7
:101FF0004B4310B4040C614392B280B2504362432D
:102000001C041B0C001910BC59411304120CC018FD
:102010005141614470470000132310B51C781348E8
:10202000FFF7F8FE012C0BD004DD010080221048E0
:1020300000F04AF80F48FFF7E5FE0F4B186010BD9F
:102040000B4C01005422200000F03EF80B4B63655E
:10205000A365E36523666366A366E3662367636738
:10206000A367E3672362E361E4E7C04653460000E9
:10207000FC1000204C330000E00F002081200010F5
:1020800007B5604601880A0A0230DF2AFAD1C9B2D0
:10209000820804D3028840880004104300E00068EE
:1020A000014A5050039007BDFC1000200148042154
:1020B000014B184770040020251E0010014B1B68BF
:1020C0001847000070040020014B5B6818470000AF
:1020D00070040020030010B508001B681100984729
:1020E00010BDC046F8B54746CE4680B5437C804615
:1020F0000C001500002B43D0002A34DD0A78037C45
:1021000000200A2A33D0012D1ED0204B0121671E4A
:10211000994602E03100B54216D0635C7A5C4E1CF1
:102120000A2BF7D10D2AF5D043461B68884204DA02
:10213000091A2018984743461B68022148469847C9
:1021400030003100B542E8D1854204DD4346291A0A
:102150001B68201898476419013C23780D3B5A42AC
:102160005341424613740CBC90469946F8BD002B6F
:10217000C9D14346054802211B6898470120C2E7A0
:102180000368110020009847EDE7C0462442001084
:10219000F0B5DE4657464E464546E0B51E00D02314
:1021A0001B0683B01C68334B01AF80460D0018003E
:1021B000390091469B4601F09FFF8246002808D1D6
:1021C000019B64B29C4204D0584601F09DFF01235C
:1021D0009A466B1C03D1404601F016F80500002E0C
:1021E00028D1254E254B1C68002C16D04B46002BC1
:1021F00022D1234F02E0E468002C0ED02368002B8C
:10220000F9D03B68002B01D0A342F4D120002A0072
:102210004146B047E468002CF0D15346002B25D14D
:10222000681E8541E8B203B03CBC90469946A24680
:10223000AB46F0BD134ED5E7114B994602E0E4687A
:10224000002CEAD02368002BF9D04B461B68002BEA
:1022500001D0A342F3D12A0041462000B0470A230F
:102260000122390020003B70B047E8E7584601F0F2
:102270002BFFD5E7D00C0020E5200010B80F002080
:10228000BC0F0020D5200010F0B54746CE4680B5E3
:1022900083B06B46DF1CD02338701B061C68204BB4
:1022A000060001A91800984601F026FF051E22D05D
:1022B0001C4B1C68002C2AD01B4B994602E0E4689A
:1022C000002C10D02368002BF9D04B461B68002B44
:1022D00001D0A342F3D1200001223900FFF702FF11
:1022E000E468002CEED1002D11D1300003B00CBCFD
:1022F00090469946F0BD019B64B29C420BD040468B
:1023000001F002FF074B01251C68002CD4D1404688
:1023100001F0DAFEE9E7034B1C68002CCCD1E4E7BE
:10232000D00C0020B80F0020BC0F002070B50400B6
:1023300000F06AFF00230100050001222000FFF7E2
:1023400027FF084B1C68002C06D06368002B05D0C3
:102350009847E468002CF8D1280070BDE468002C90
:10236000F3D1F9E7B80F0020F0B54746CE4680B567
:102370000E0083B0170000282CD11C4B1C4D1A688E
:102380005B68019200931B4B99461B4B98464B464A
:102390001C68002C03D115E0E468002C12D04346E1
:1023A0001B68002B01D0A342F6D1A368002BF3D009
:1023B0003900300098470028EEDD03B00CBC904691
:1023C0009946F0BD6B6A009A9A4209D8AA6A0199A7
:1023D0008A4202D301204042EFE7009A9A42F9D1A3
:1023E00001200021FEF704FED1E7C0467041001035
:1023F00000400540B80F0020BC0F0020013870B528
:102400000D001400012807D8002300222100280015
:10241000FFF7BEFE200070BD01204042FBE7C04632
:1024200010B5024800F004F810BDC046D80F0020D7
:1024300010B588B004000D2200216846FFF73EFE6B
:102440000D22002104A8FFF739FE4B236A4604A998
:10245000137068460D2201F02FFE152108226944F1
:102460002000FFF731FE08B010BDC0460123012156
:10247000084A1360084A1360084A080093689843A2
:10248000FBD1074A11608021490013680B42FCD040
:102490007047C04600E0004000F0004000C000402F
:1024A00000C004402C4A70B51378012B52D0012390
:1024B0002A48137002682A491A400A6002680220FA
:1024C0001A400A60274A1F2112681340264A1360E7
:1024D000FDF7BAFF1F210320FDF7B6FF1F210C20D7
:1024E000FDF7B2FF1F210E20FDF7AEFF1F210F20C9
:1024F000FDF7AAFF1F210D20FDF7A6FF0220FDF723
:10250000BBFF05000320FDF7B7FF043D04386C4214
:102510006C41454245410C20FDF7AEFF0438254093
:10252000444244410E20FDF7A7FF043825404442B1
:1025300044410F20FDF7A0FF0438434258412C408E
:1025400004400D20FDF798FF0438434258412040D5
:10255000013870BD0020FCE7FC110020140005408C
:10256000141005407800054078100540654B70B5A3
:10257000994218DB644B994236DD012800D1AEE068
:10258000002800D19EE0022800D18FE0032850D01F
:102590005E4B11221B680121DB685D4800F09AF94F
:1025A000012040421FE0012800D177E0002846D0FA
:1025B000022837D00328EBD18023802500245548FA
:1025C000554A1B02AD01D02109068D6153490968A6
:1025D00059434900090C002C21D1514B126851403C
:1025E0000B400360002070BD01287ED0002800D180
:1025F00081E0022860D00328CAD180250024454804
:10260000454AAD0100297ADB0B00D02109064D6156
:102610004249096859434900090C002CDDD00904DE
:10262000404BDBE780231B023F48404A1D0001244A
:10263000C9E780253748384AAD010024E5E7802105
:102640000902D02380221B06D2019A618022120245
:102650009A61802292019A613048344C0268236862
:102660004A435200120C5A4012042F4B120C1A60AB
:10267000026824684A43D20B12046240120C12040E
:102680001A60254B1A68036800204B435B001B0C43
:1026900053401B041F4A1B0C1360A4E780238025B2
:1026A0002148224A1B02ED0100248CE780251E48A8
:1026B0001E4A2D020124A8E780251B481B4A2D0233
:1026C00001249FE71900D02380221B06D2015A6102
:1026D000802212025A61802292015A61BCE7802551
:1026E0001148124AED0100248FE780250E480F4A59
:1026F000ED01002486E70029E5DA4942A1E74B42D3
:1027000061E7C0460080FFFFFF7F000088040020D3
:10271000284200108410054084000540001200206B
:10272000FFFF00000000FFFF2010054020000540D3
:102730000022414B70B50E201A70FDF7D3FE0F201A
:10274000FDF7D0FE0D20FDF7CDFED02380221B0625
:10275000D2015A62802212025A62802292015A6287
:1027600004210220FDF770FE04210320FDF76CFE1A
:1027700004210C20FDF768FE304B31481D68290309
:10278000FFF796FB0C002E48611E8C412900FFF7D5
:102790008FFB010B6118102900D21021294B2A4C04
:1027A0000B40A3612948A361E367FFF781FB290080
:1027B000FFF77EFB264B0138186088230004000CCD
:1027C00060626062E05001242100224A0020136808
:1027D0009943214B1960210012689143220019602E
:1027E0001E4B00211B689A431D4B1A60FFF7BEFE6B
:1027F000D02109060A6A0B6A920B086ADB0B1440A7
:102800001C40400B04400220FDF736FE060003206A
:10281000FDF732FE043E05000C20FDF72DFE73424D
:102820005E41043D264004386C426C4143425841AD
:1028300034402040013870BDFC110020800400208D
:1028400040597307FF0F00000000054000943577E2
:1028500000120020140005401410054078000540C7
:1028600078100540F0B5C64600B51E00140086B0CD
:1028700001AB039301237443071E90460C9D019105
:1028800002940594049302D0836B002B1BD00C237D
:10289000EA5E80239B011A4205D11343AB816A6E25
:1028A0000B4B13406B6603AA2900380000F02EFF83
:1028B00000280BD005984146201AFFF7F9FA06B018
:1028C00004BC9046F0BD00F0BBFDE0E73000F6E749
:1028D000FFDFFFFF10B50400054882B000680093D9
:1028E00013000A002100FFF7BDFF02B010BDC04673
:1028F00088040020F0B557464546DE464E46E0B512
:102900000D000B3583B00700162D22D8102900D9F1
:10291000BBE000F0B5FA102518230220D14EF318C1
:102920001A005C68083A944200D1BEE00323626852
:102930009A431300E268A168CA6091600122E3181B
:10294000596838000A435A6000F09CFA20000830A9
:102950009EE007239D4300D597E0A94200D994E06B
:1029600000F08EFAF823FF339D4200D8ADE1680AEB
:1029700000D194E0042800D980E138239846A809C2
:1029800080443930C100B74E71180839CC68A14273
:1029900018D0032362689A431300521B0F2A00DDEC
:1029A00036E1002AC6DA03239C4608E062466368E3
:1029B00093435A1B0F2A00DD2AE1002ABADAE468A1
:1029C000A142F3D1320034690832944200D177E059
:1029D00003236168994389460B00491B0F2900DDD9
:1029E00077E1726132610029A8DA9F4A914500D9E6
:1029F00010E1DA08012391108B40D200716892191E
:102A00000B4391687360E260A1609460CC60012127
:102A100082109140994259D80B4205D1032290432C
:102A2000490004300B42FBD003239846C30099466B
:102A3000B144CC4682466346DC68A44507D129E10F
:102A4000002A00DB32E1E468A44500D122E14246DD
:102A5000636893435A1B0F2AF2DD012080466119F7
:102A600005436560A068E5680836C560A860404613
:102A7000F160B16010434860CE608E603800E25073
:102A800000F000FA2000083002E00C2300203B6038
:102A900003B03CBC90469946A246AB46F0BD8021AF
:102AA0003F238900402098466DE7DC680230A3424E
:102AB00000D03BE7320034690832944200D087E707
:102AC00001217368821091409942A5D90323B4680B
:102AD00062689A439046AA4203D3531B0F2B00DD32
:102AE00088E023004344614A0193614B93469A4630
:102AF00012681B68EB18013200D139E15D4A944637
:102B000063441B0B1B0300930099380000F06AFB21
:102B100003008146013300D1F6E0019B834200D9D6
:102B2000F0E051464968009B8C46514663444B6037
:102B300001991A00494500D14FE15B461B680133FA
:102B400000D154E14B4601995B1A9A1853465A60DA
:102B500007234A461A40019200D113E108214B464F
:102B600089469B1A99440099434B49449B1A5B1A26
:102B70001B051B0D0091380019009B4600F032FB2D
:102B8000431C00D14FE14B46C01A03005B44009345
:102B9000534652465B6801215B4453604A464846AF
:102BA000B260009A0A434260B44200D123E1424637
:102BB0000F2A00D821E107200C3A824360680140C7
:102BC000052011436160A118486088600F2A00D970
:102BD00034E14A464C4652685146C96A994201D28C
:102BE0005146CB625146096B994200D38EE0514663
:102BF0000B638BE0012229001343114365196160C7
:102C00003800B5606B6000F03DF9200008303FE708
:102C10004046D7E65A0A042A6ED9142A00D9C1E0E0
:102C200011005C325B31D20008235B429C46B21833
:102C3000944463469A6803239846944500D19AE0E9
:102C4000434651689943494502D992689445F7D162
:102C5000D3689C4673686146A260E1608C60D46072
:102C6000D5E6C046C0080020FF010000B8080020DB
:102C70000C0E00200F10000008100000142852D97C
:102C8000542800D996E06E239846280B80446F3074
:102C9000C10078E608239B46073BDC449B46DA44A8
:102CA00043465246134200D0C5E64CE00122E318E9
:102CB000596838000A435A60E368A268D3609A6092
:102CC00000F0E0F820000830E2E62B00E8080833C6
:102CD00024E6012360191D43656070613061C260A4
:102CE00082601A004B460A4342603800E15000F00F
:102CF000C9F820000830CBE69A0911003932383182
:102D0000D20091E7B44260D0B468626803239A436A
:102D1000531BAA4202D30F2B00DD6BE7380000F0F3
:102D2000B1F80020B4E65B23984680445C30C100D3
:102D300029E608235B429C46E1444B469B680138E8
:102D40004B4500D097E043460342F2D173688B4372
:102D500073604900994200D9B8E6002904D1B5E66C
:102D6000042294464900E2440B42F9D050465DE605
:102D700010330093C8E68910023B8B4071680B4307
:102D8000736068E7009B38004B441B055B421B0DDA
:102D900019009B4600F026FA431C00D0F3E60023FE
:102DA0009B46F5E6542A2AD81A0B11006F326E3171
:102DB000D20039E7AA235B0098422AD8DD3B984627
:102DC000E80B80447830C100DDE553465B68009A2B
:102DD0009C46534662445A60AFE6090500D0ACE613
:102DE000009AB468424401310A436260F4E65B46EB
:102DF0004A461A60ACE64C46EEE641608EE7AA21F0
:102E000049008A4224D8DA0B110078327731D20097
:102E10000AE71A4B984224D87C239846A80C804491
:102E20007D30C100AFE5009A019B94464A46083BBD
:102E300063449B1A009300239B46A9E621003800B7
:102E4000083100F075FB5346B4685B686268C3E6FE
:102E50000A498A420BD89A0C11007D327C31D2008B
:102E6000E2E6FE217E2389007F2098468BE5FE2244
:102E70007E219200D8E673686BE7C04654050000D7
:102E80007047C0467047C046F0B5DE464E464546E0
:102E90005746E0B5804685B00E1E934600D1C6E089
:102EA0005C460B34FFF7ECFF162C68D81024102377
:102EB000A34568D83700083F796803220D00954381
:102EC0007819019781469D4200DB94E0C44A40682E
:102ED0009268039002924A4500D1BCE001229246DA
:102EE0000200504682439446CC44624652680242F5
:102EF00000D092E00322039890432A1894469A4205
:102F000000DB18E152460A420ED103213A68BA1A90
:102F1000924652688A4310184119019199423FDA4A
:102F2000AA1801929A4241DA59464046FFF7E2FC5C
:102F3000814600281FD07B68BC460193012301997C
:102F4000020099430B00083A6344934200D1FCE02D
:102F50002A1F242A00D9FFE031680300132A00D970
:102F6000C4E0320019605168596092689A6031007B
:102F7000404600F0DDFA4046FFF784FF08E00723F3
:102F80009C43231E94DA0C23424613600023994687
:102F9000484605B03CBC90469946A246AB46F0BDBB
:102FA0004B464A46DB689268D3609A605346524665
:102FB0005746DB6892680837D3609A60019B2A1FE6
:102FC00053449946242A00D99AE031683B00132AD9
:102FD00009D9534699607168D9601B2A00D9CAE0A3
:102FE000B1681033083619607268019D5A60B26882
:102FF0003E0057469A6001237A68281B1A400F2822
:103000001AD82A437A604A46526813434A465360A4
:103010004046FFF737FFB146BAE7084200D083E7E2
:1030200003213A68BA1A924652688A4378E7110037
:10303000FFF760FC8146ABE7391914434A46184351
:103040007C6048605268083113434A4640465360EA
:1030500000F06EFADCE70322039890432A189146A9
:1030600010229446A444E14552DACA0700D55BE732
:1030700039687A1A0321924652688A431018411916
:1030800001918C4500DD4BE753465246DB68926860
:10309000D3609A6008232A1F53449946242A00D9F2
:1030A00086E03168132A09D9534699607168D9605E
:1030B0001B2A00D981E0B1681033083619607268A4
:1030C0005A60B2689A6053461919454B4046996058
:1030D000019B1A1B01231A434A605246526813404F
:1030E0001C4353465C60FFF7CDFE51E701607168F9
:1030F00041601B2A34D8320008330832B16831E706
:103100003100380001F008F83E00019D574672E793
:103110000198334B011999604B461A1B01231A433E
:103120004A604168B1460B401C43446040460191EF
:10313000FFF7A8FE2CE74B464A46B946DB68926883
:10314000E144D36065469A6055E70322B9465B685F
:103150009343ED18A9444EE7310000F0DDFF06E788
:10316000B1688160F168C160242A0ED0320010334A
:1031700010323169F6E6B1681961F1685961242AA3
:103180000DD03169183310362DE732690100026124
:1031900032007069183248611833B169E2E6326969
:1031A0009A61524671692033D161B16918361AE7C4
:1031B0003100180000F0B0FF85E7B1681961F168CF
:1031C0005961242A03D031691833103676E7326901
:1031D0009A61524671692033D161B16918366DE741
:1031E000C0080020002370B5064C050008002360CD
:1031F000FEF7D6FB431C00D070BD2368002BFBD02C
:103200002B60F9E70412002010B5830727D003785C
:10321000002B26D00300032102E01A78002A1CD0DC
:1032200001330B42F9D119680F4A104C8A188A43AE
:1032300022420FD1043319680B4A8A188A4322426A
:1032400008D104331968084A8A188A432242F1D007
:1032500000E001331A78002AFBD1181A10BD0300D0
:10326000E1E70020FAE7C046FFFEFEFE8080808096
:103270000020704710B5024900F0FAFB10BDC046AF
:10328000893C0010F0B5D6464F464646304BC0B597
:10329000C363B823002403229B00C4500433456851
:1032A000C2500833C218043BC25006000423280051
:1032B0006C662C606C60AC60EB602C616C61AC6126
:1032C000082200215C30FEF7F9FE224B224F9A467D
:1032D0002B62224BEF6299466B62214BED61AB6230
:1032E000B568984628001F4B6C662C606C60AC601B
:1032F000EB602C616C61AC61082200215C30FEF750
:10330000DDFE53462B624B466B624346EF62AB6277
:10331000ED61F568144B2800EB606C662C606C6006
:10332000AC602C616C61AC61082200215C30FEF75E
:10333000C5FE53462B624B466B624346AB6201238C
:10334000EF62ED61B3631CBC90469946A246F0BDA6
:1033500075320010BD3A0010553B0010E93A0010DC
:10336000293B0010090001001200020000207047F4
:1033700070B568244A1E54430E0021007431FFF7D3
:10338000B9FA051E09D000232200036046600C3004
:10339000A86068320021FEF791FE280070BDC0468B
:1033A0001F4B70B51D680600AB6B002B2AD0B823ED
:1033B0009B009C4665446B68AC68013B03D51CE0F0
:1033C0006834013B19D30C21625E002AF8D1002534
:1033D0002000144B656625606560A560E36025618B
:1033E0006561A561082200215C30FEF767FE256358
:1033F00065636564A564200070BD2C68002C05D051
:103400002500D8E72800FFF73DFFD0E70421300072
:10341000FFF7AEFF041E2860F2D10C233360EAE709
:103420003C4200100100FFFF10B5034B0349186830
:1034300000F01EFB10BDC0463C420010893C00104D
:10344000836B10B5002B01D1FFF71CFF10BDC046E8
:103450007047C0467047C0467047C0467047C04678
:1034600010B5034B0349186800F0E0FA10BDC046E0
:10347000880400207132001010B5034B034918680E
:1034800000F0D4FA10BDC046880400206D3300104F
:10349000F8B50C000600FFF7F3FC204FBB685D6831
:1034A00003239D431E4B2C1B9C466444240B1D4B45
:1034B000013C24039C4207DD00213000FFF792FE0F
:1034C000BB685B19984204D03000FFF7DBFC00209A
:1034D000F8BD61423000FFF785FE431C0DD001228C
:1034E000BB682D1B15435D600F4B30001A68141B21
:1034F0001C60FFF7C7FC0120EAE700213000FFF75E
:1035000071FEBA68831A0F2BDEDD08490968401A7C
:103510000549086001210B435360D5E7C00800202E
:10352000EF0F0000FF0F0000100E0020B808002071
:10353000F0B5D6464F4646460500C0B50C1E5CD0D9
:10354000FFF79EFC210008394F6801243B0003224D
:10355000A343C81846689643B146664EB268824295
:1035600000D175E04A464260821894463C4229D117
:103570000F68C91B8A68DB199046624657680822A3
:1035800094462740B444BA46E04556D0CA689446AB
:1035900042466746D7606246474697605246002AD1
:1035A00013D101224B44CF18BC468468524F1A43B2
:1035B000BC4200D17AE0C068E06084604A60624644
:1035C000136005E057682742EBD01C434C60036052
:1035D0004A4A934216D8DB08FF3A9810FF3A8240D5
:1035E0007068DB00024372609E19B368CE608B6026
:1035F000B160D9602800FFF745FC1CBC9046994695
:10360000A246F0BD5C0A042C3AD89C09200039344B
:103610003830E4003419083CA268032794423ED0B5
:103620005068B843984202D992689442F8D1D4685D
:10363000CC608A60A160D160DCE7002F55D1C26800
:103640004B4480681C43C26090604C60CB50D1E713
:103650004B443C4206D10A68891A88689B18CA689C
:10366000C260906001221A434A60254AB160126824
:103670009A42BFD8234B28001968FFF709FFB9E722
:10368000142C07D9542C19D81C0B20006F346E3021
:10369000E400BFE720005C345B30E400BAE70123BC
:1036A00080108340706803437360C1E7E160A160EC
:1036B0004A606246CC608C6013609BE7AA204000A1
:1036C000844205D8DC0B200078347730E400A1E791
:1036D0000D48844205D89C0C20007D347C30E400E9
:1036E00098E7FE247E20A40094E71C434C6003600E
:1036F00080E7C046C0080020C8080020FF01000085
:10370000BC0800200C0E002054050000F0B5454612
:10371000DE4657464E46E0B5936883B000900C00F5
:103720009046002B6DD08B891A0700D471E00A698E
:10373000002A00D16DE0424616689A0700D475E071
:10374000636A00279A46B54B00259946E169002D2A
:1037500016D02B004D4500D9B04B3A000098D04709
:10376000002800DCD5E043469B683F182D1A181A44
:103770004346986045D0636AE1699A46002DE8D1D6
:10378000376875680836E2E74B461B689A464B4631
:103790005F6808239C46E144002FF5D03A000A21D7
:1037A000504600F099FC002800D1CEE0534601308D
:1037B000C61A3300BB469F4200D99B462068226947
:1037C0006369904204D9A2689D18AB4500DD92E080
:1037D0005B4500DDF9E0656A5246E1690098A8475B
:1037E000051E00DC95E0761B0120002E00D1E4E0F0
:1037F00043469B68AA447F1B5D1B43469D6000D0E7
:1038000095E0002003B03CBC90469946A246AB46EA
:10381000F0BD2100009800F0B7F9002800D0F9E0D1
:103820004246A38916689A0700D589E7DA0778D453
:10383000002291468022920000279346A5682068C6
:10384000002F53D05A46134200D181E0AA46BD4210
:1038500000D9AFE09022D20013422ED02169451A40
:10386000AC466069019542001218D00F8218781C8E
:10387000521060449246904201D9824602005B0594
:1038800000D4AFE011000098FFF734F8051E00D116
:10389000BAE0019A2169FEF717FCA389604A134038
:1038A00080221343A3815246019B2561E818BA4642
:1038B0003D00D31A20606261A3605246494600F081
:1038C0002BFCA3685D1BA5603D00002723685344C3
:1038D000236043469B68A9445D1B43469D6000D11D
:1038E0008FE7A5682068A389002FABD1326877687D
:1038F00091460836A4E751462A0000F00DFC2368E3
:1039000021005B192360009800F0C4FA002800D160
:1039100069E70C22A35E402201201343A3814042A9
:1039200070E70023B14600209A4600271E00002FB2
:1039300000D129E7002800D03BE73A000A21504691
:1039400000F0CAFB002800D030E77B1C1E0031E7E6
:103950002369834217D363699A46BB4213D8314B1C
:1039600038009F4200D930485146FEF779FA534655
:103970004A464343E1690098656AA8470028C8DDC4
:1039800005007F1BA5E7BD4200D93D002A0049463E
:1039900000F0C2FBA36822685B1B5219A36022607F
:1039A000002BEED12100009800F074FA0028B0D16D
:1039B0007F1B8EE73D00BA467FE72100009800F0AC
:1039C00069FA002800D113E7A3E75A46514600F0F0
:1039D000A3FB5A46A3685D469B1AA36023685B4419
:1039E000236000E70098FFF74FFA051E00D05AE762
:1039F000009D21692800FFF79BFD8022A389934346
:103A0000743A1BB22A6086E70C23009A13600C22DA
:103A1000A35E80E701204042F4E6C04600FCFF7F41
:103A20007FFBFFFFFEFFFF7FFFFFFF7FB823F0B5A7
:103A3000C6469B00C71800B588460026002F13D045
:103A40007B68BC685D1E0CD4A389012B06D90E22AD
:103A5000A35E013302D02000C04706436834013D15
:103A6000F2D23F68002FEBD1300004BC9046F0BD8D
:103A7000F8B54746CE4680B5B8278046BF004744D4
:103A800089460026002F14D07B68BC685D1E0DD4CB
:103A9000A389012B07D90E22A35E013303D0210095
:103AA0004046C84706436834013DF1D23F68002FC5
:103AB000EAD130000CBC90469946F8BD70B50C00B8
:103AC0000E25495F00F09CFA002803DB236D1B18CC
:103AD000236570BDA389024A1340A381F9E7C0465C
:103AE000FFEFFFFF00207047F8B516001F000C2203
:103AF0008B5E0C0005000E22895EDA0508D4094AA7
:103B000028001340A38132003B0000F029F8F8BDE3
:103B10000022022300F0E8F90C22A35E0E22A15E2F
:103B2000EDE7C046FFEFFFFF70B50C000E25495FC3
:103B300000F0DAF9431C06D08023A2895B0113430D
:103B4000A381206570BDA389014A1340A381F9E7D1
:103B5000FFEFFFFF10B50E23C95E00F083F810BD24
:103B600070B50500080011000022064C22601A0002
:103B7000FEF744FC431C00D070BD2368002BFBD033
:103B80002B60F9E704120020354B70B5050018686A
:103B90000C00002802D0836B002B23D00C23E25EA4
:103BA00093B2190725D5216900292DD0DA0708D548
:103BB0000023A360636900205B42A361002908D051
:103BC00070BD00229B0700D46269A260002000291A
:103BD000F6D10C22A35E1A06F2D540221343A3812C
:103BE0000138EDE7FFF72CFC0C23E25E93B21907D6
:103BF000D9D4D9062BD55B0714D4216908231343E4
:103C0000A3819BB20029D1D1A02280209200800004
:103C10001A408242CAD02100280000F0A9F9A389E5
:103C20002169C3E7216B00290AD023004033994260
:103C300004D02800FFF77CFC0C23E25E0023236302
:103C400024239A430023216963602160D6E7092376
:103C50002B60402301201A43A2814042B0E7C046B6
:103C600088040020002370B5064C0500080023607E
:103C700000F000FA431C00D070BD2368002BFBD07D
:103C80002B60F9E70412002070B505000C1E08D067
:103C9000002802D0836B002B31D00C22A35E002BB6
:103CA00002D10026300070BD2100280000F042F84B
:103CB000E36A0600002B04D0E16928009847002839
:103CC00024DBA3891B0626D4216B002908D02300FE
:103CD0004033994202D02800FFF72AFC00232363D7
:103CE000616C002904D02800FFF722FC00236364E4
:103CF000FFF7AEFB0023A381FFF7ACFBD2E7FFF792
:103D00009FFB0C22A35E002BCBD0CDE70126A3891D
:103D100076421B06D8D521692800FFF709FCD3E7B6
:103D200010B5034B01001868FFF7AEFF10BDC04689
:103D300088040020F0B5C64600B50C23CA5E804654
:103D400093B20C0019074DD480231B011343626802
:103D5000A381002A67DDA56A002D3FD04246414677
:103D6000166800229BB20A60E169DA0460D401237C
:103D700000224046A847431C69D0A389A56AE1698F
:103D80005B0706D56368C01A236B002B01D0E36B79
:103D9000C01A002302004046A847431C4AD14346AC
:103DA0001A680C21635E002A5FD01D2A01D0162AF2
:103DB00069D1374A1340A3810023636023692360DC
:103DC0004346216B1E60002908D0230040339942EE
:103DD00002D04046FFF7ACFB00232363002004BC65
:103DE0009046F0BD2669002EF8D022682660951B0B
:103DF00000229B0700D16269A260002D04DCEDE780
:103E000036182D1A002DE9DD2B003200E1694046FD
:103E1000676AB8470028F3DC40220120A3894042AA
:103E20001343A381DBE7E26B002A00DD93E7D5E7CC
:103E3000206DA5E7A389164A13400022626022691B
:103E40001BB2A3812260DB04BAD52065B8E74346E4
:103E50001B68002B00D190E71D2B10D0162B0ED025
:103E60004022A3891343A381B9E70949626022690B
:103E70000B40A3812260DB04A2D52065A0E7434666
:103E800000201E60ABE740221343A381A7E7C04692
:103E9000FFF7FFFF70B504000D00002802D0836B10
:103EA000002B09D00C22AB5E0020002B03D0290090
:103EB0002000FFF73FFF70BDFFF7C2FAF2E7C046F0
:103EC00010B5011E04D0054B1868FFF7E3FF10BDC5
:103ED000034B04491868FFF7CBFDF8E7880400207E
:103EE0003C420010953E001070B50500080011001E
:103EF0000022064C22601A0000F0D4F8431C00D0C7
:103F000070BD2368002BFBD02B60F9E70412002062
:103F100070B50C001E000E23C95E96B01500002976
:103F200015DB6A4600F080F8002810DBF022019BC8
:103F3000120213400D4A8020944663445A42534172
:103F400033608023DB002B60000116B070BD0023BE
:103F50003360A3891B0603D5402300202B60F4E7C0
:103F60008023DB002B600020EFE7C04600E0FFFF6E
:103F700070B58B8982B006000C009B0707D5230023
:103F80004333236023610123636102B070BD01AB41
:103F90006A46FFF7BDFF009905003000FEF7AAFC56
:103FA000002810D08022154BF363A38920601343AF
:103FB000009A1BB26261019AA3812061002A0CD190
:103FC0002B43A381E1E70C22A35E9A05DDD40322F3
:103FD000934302221343A381D1E70E23E15E300015
:103FE00000F036F8002802D10C22A35EE8E7032295
:103FF000A3899343012213431BB2E1E775320010FA
:1040000070B50500080011000022064C22601A005D
:10401000FEF7AAF9431C00D070BD2368002BFBD02B
:104020002B60F9E704120020002370B5074C05004F
:1040300008001100236000F025F8431C00D070BD7B
:104040002368002BFBD02B60F9E7C0460412002048
:10405000002370B5064C05000800236000F01AF834
:10406000431C00D070BD2368002BFBD02B60F9E708
:104070000412002058220120014B40421A60704770
:104080000412002058220120014B40421A60704760
:10409000041200205822024B00201A607047C046CC
:1040A0000412002058220120014B40421A60704740
:1040B00004120020F8B5C04601B40248844601BC91
:1040C000604700BFF101002001B40248844601BCF2
:1040D000604700BF5101002001B40248844601BC82
:1040E000604700BFA902002001B40248844601BC19
:1040F000604700BFA502002001B40248844601BC0D
:10410000604700BF0901002001B40248844601BC99
:10411000604700BFC100002001B40248844601BCD2
:08412000604700BF29030020E5
:1041280009466F7277617264000000005465737409
:10413800696E67206C656674206D6F746F722E2EC1
:104148002E00000054657374696E67207269676891
:1041580074206D6F746F722E2E2E0000446F6E6582
:104168002100000000000000FFFFFFFFFFFFFF7FAE
:10417800486172647761726520616C61726D202597
:104188006420616C726561647920636C61696D6536
:104198006400000048617264206173736572740082
:1041A8000A2A2A2A2050414E4943202A2A2A0A004C
:1041B80006005250BBFF3CB6FC41001006005250AE
:1041C800E182887FE441001006005250D3F0754226
:1041D800DC41001052656C6561736500626F6F7435
:1041E800325F77323571303830000000312E342E8E
:1041F800300000007069636F000000007069636F31
:104208005F64726976655F666F72776172640000D9
:104218004D61722031352032303234000D0A0000F1
:10422800496E76616C6964206368616E6E656C21A5
:084238000A00000090040020C0
:10424000B4020010A80200109C020010B841001037
:0C42500090020010C4410010D04100108A
:10425C00D02330B500251B065D57002406E003680B
:10426C00BFF35F8F1C6081F3108820BF0268EFF3EF
:10427C00108172B61368002BFCD0BFF35F8F0379EB
:10428C007F2BECD905710368BFF35F8F00221A6096
:10429C0081F3108830BDC046030010B50068EFF301
:1042AC00108472B60268002AFCD0BFF35F8F042220
:1042BC009A56002A0BDB00290FD000200A601B68DD
:1042CC00BFF35F8F00221A6084F3108810BDD022D8
:1042DC001206126801201A71F1E70020EFE7C046C0
:1042EC000268EFF3108172B61368002BFCD0BFF399
:1042FC005F8FFF2303710368BFF35F8F00221A6087
:10430C0081F3108840BF7047084810B50378002B24
:10431C000AD180230649074A5B051C68CC5004333C
:10432C009342FAD10123037010BDC046F80F002050
:10433C00500E00100001001010B5024B01339847CD
:10434C0010BDC046500E0020054B1A6880239B0000
:10435C005340C02292001340024A13607047C0467B
:10436C000C8001400C900140034B1A68C0239B0049
:10437C009343024A136070470C8001400C9001403B
:10438C00F0B5D6464F4646461423C0B51827984676
:10439C0081460D00188824493B88140098474346F1
:1043AC008246224918883B88984743462049060094
:1043BC0018883B8898478046FFF7A6FFD047B04740
:1043CC00FFF7C2FF002C24D0C02022004005082695
:1043DC00163F11E04B461B78013C036601239C46BB
:1043EC00E144002905D0002A03D0036E013A2B705A
:1043FC000135130023430CD03100836A19401F424E
:10440C00EFD0002CEDD0131B0D2BE3D90029EAD1F2
:10441C00F2E7FFF7A9FFC047FFF78EFF1CBC9046E1
:10442C009946A246F0BDC0464946000045580000DA
:10443C00464300007047C04670B5CDB2830734D0F8
:10444C00531E002A1BD00278AA4219D0032404E080
:10445C00013B14D30278AA4212D001302042F7D18A
:10446C00032B0ED8002B0AD00278AA4208D0C3180E
:10447C0002E00278AA4203D001308342F9D1002035
:10448C0070BDFF220C06240C114021430C04084E75
:10449C000C43026807496240511891433142E3D101
:1044AC00043B0430032BF4D8DCE71300D8E7C046F8
:1044BC0080808080FFFEFEFEF0B5C64600B58842C7
:1044CC000CD98B18984209D2531E002A03D0CA5C0F
:1044DC00C254013BFBD204BC9046F0BD0F2A0CD851
:1044EC000500561E002AF6D0002300E02300CA5C0B
:1044FC005C1CEA549E42F9D1EDE70B000326034302
:10450C001E400C000300002E2ED11500103D2D096D
:10451C00AC462D01A846804400E02B001D00276806
:10452C0010351F6067685F60A7689F60E76810348C
:10453C00DF604345F1D165460F230C2401352D0175
:10454C00491913404519144211D08C59AC510436F9
:10455C009C1B032CF9D80324043B9B0801339B00C0
:10456C00ED18C9182240BCE7561E0500BCE71A001E
:10457C00B7E7C0461000000000000000000001007A
:10458C00000000000000000000000200000000001D
:10459C00000000000000030000000000000000000C
:1045AC000000FF000000000000B5486801318E4695
:1045BC000047704609380149884700BDE5070010DF
:1045CC004804002000000000F00C0020780F0020B0
:1045DC000000000000000000880F00200000000018
:1045EC0000000000100000000000000000000000AF
:1045FC00503300004C3300005433000052330000A1
:10460C004D5300004D430000533400004334000070
:10461C00A8610000000000009004002000000000D1
:10462C00000000007C070020E40700204C0800205C
:10463C00000000000000000000000000000000006E
:10464C00000000000000000000000000000000005E
:10465C00000000000000000000000000000000004E
:10466C00000000000000000000000000000000003E
:10467C00000000000000000000000000000000002E
:10468C00000000000000000000000000000000001E
:10469C00000000000000000000000000000000000E
:1046AC0000000000000000000000000000000000FE
:1046BC0000000000000000000000000000000000EE
:1046CC0000000000000000000100000000000000DD
:1046DC000E33CDAB34126DE6ECDE05000B000000A2
:1046EC0000000000000000000000000000000000BE
:1046FC0000000000000000000000000000000000AE
:10470C00000000000000000000000000000000009D
:10471C00000000000000000000000000000000008D
:104A4C000000000000000000FFFFFFFF000002005C
:104A5C000000000000000000C0080020C00800207A
:104A6C00C8080020C8080020D0080020D00800206A
:104A7C00D8080020D8080020E0080020E00800201A
:104A8C00E8080020E8080020F0080020F0080020CA
:104A9C00F8080020F8080020000900200009002078
:104AAC000809002008090020100900201009002026
:104ABC0018090020180900202009002020090020D6
:104ACC002809002028090020300900203009002086
:104ADC003809002038090020400900204009002036
:104AEC0048090020480900205009002050090020E6
:104AFC005809002058090020600900206009002096
:104B0C006809002068090020700900207009002045
:104B1C0078090020780900208009002080090020F5
:104B2C0088090020880900209009002090090020A5
:104B3C009809002098090020A0090020A009002055
:104B4C00A8090020A8090020B0090020B009002005
:104B5C00B8090020B8090020C0090020C0090020B5
:104B6C00C8090020C8090020D0090020D009002065
:104B7C00D8090020D8090020E0090020E009002015
:104B8C00E8090020E8090020F0090020F0090020C5
:104B9C00F8090020F8090020000A0020000A002073
:104BAC00080A0020080A0020100A0020100A002021
:104BBC00180A0020180A0020200A0020200A0020D1
:104BCC00280A0020280A0020300A0020300A002081
:104BDC00380A0020380A0020400A0020400A002031
:104BEC00480A0020480A0020500A0020500A0020E1
:104BFC00580A0020580A0020600A0020600A002091
:104C0C00680A0020680A0020700A0020700A002040
:104C1C00780A0020780A0020800A0020800A0020F0
:104C2C00880A0020880A0020900A0020900A0020A0
:104C3C00980A0020980A0020A00A0020A00A002050
:104C4C00A80A0020A80A0020B00A0020B00A002000
:104C5C00B80A0020B80A0020C00A0020C00A0020B0
:104C6C00C80A0020C80A0020D00A0020D00A002060
:104C7C00D80A0020D80A0020E00A0020E00A002010
:104C8C00E80A0020E80A0020F00A0020F00A0020C0
:104C9C00F80A0020F80A0020000B0020000B00206E
:104CAC00080B0020080B0020100B0020100B00201C
:104CBC00180B0020180B0020200B0020200B0020CC
:104CCC00280B0020280B0020300B0020300B00207C
:104CDC00380B0020380B0020400B0020400B00202C
:104CEC00480B0020480B0020500B0020500B0020DC
:104CFC00580B0020580B0020600B0020600B00208C
:104D0C00680B0020680B0020700B0020700B00203B
:104D1C00780B0020780B0020800B0020800B0020EB
:104D2C00880B0020880B0020900B0020900B00209B
:104D3C00980B0020980B0020A00B0020A00B00204B
:104D4C00A80B0020A80B0020B00B0020B00B0020FB
:104D5C00B80B0020B80B0020C00B0020C00B0020AB
:104D6C00C80B0020C80B0020D00B0020D00B00205B
:104D7C00D80B0020D80B0020E00B0020E00B00200B
:104D8C00E80B0020E80B0020F00B0020F00B0020BB
:104D9C00F80B0020F80B0020000C0020000C002069
:104DAC00080C0020080C0020100C0020100C002017
:104DBC00180C0020180C0020200C0020200C0020C7
:104DCC00280C0020280C0020300C0020300C002077
:104DDC00380C0020380C0020400C0020400C002027
:104DEC00480C0020480C0020500C0020500C0020D7
:104DFC00580C0020580C0020600C0020600C002087
:104E0C00680C0020680C0020700C0020700C002036
:104E1C00780C0020780C0020800C0020800C0020E6
:104E2C00880C0020880C0020900C0020900C002096
:104E3C00980C0020980C0020A00C0020A00C002046
:104E4C00A80C0020A80C0020B00C0020B00C0020F6
:104E5C00B80C0020B80C002000000000000000007E
:104E6C000000000000000000AD200010F51D001037
:104E7C00FD1E001019200010390300102124001011
:04000005100001E9FD
:00000001FF
