:020000041000EA
:1000000000B5324B212058609868022188439860DF
:10001000D860186158612E4B002199600221596106
:100020000121F02299502B49196001219960352056
:1000300000F044F80222904214D00621196600F024
:1000400034F8196E01211966002018661A6600F04E
:100050002CF8196E196E196E052000F02FF8012189
:100060000842F9D1002199601B49196000215960AB
:100070001A491B48016001219960EB211966A021F2
:10008000196600F012F800219960164914480160C1
:100090000121996001BC002800D000471248134993
:1000A000086003C880F30888084703B5996A0420EC
:1000B0000142FBD001200142F8D103BD02B5186610
:1000C0001866FFF7F2FF186E186E02BD00000240BE
:1000D000000000180000070000035F00212200005C
:1000E000F4000018222000A00001001008ED00E03C
:1000F00000000000000000000000000074B24E7A12
:1001000000200420F7010010C3010010C5010010F9
:10011000C1010010C1010010C1010010C101001097
:10012000C1010010C1010010C1010010C701001081
:10013000C1010010C1010010C9010010CB01001065
:10014000CD010010CD010010CD010010CD01001037
:10015000CD010010CD010010CD010010CD01001027
:10016000CD010010CD010010CD010010CD01001017
:10017000CD010010CD010010CD010010CD01001007
:10018000CD010010CD010010CD010010CD010010F7
:10019000CD010010CD010010CD010010CD010010E7
:1001A000CD010010CD010010CD010010CD010010D7
:1001B000CD010010CD010010CD010010CD010010C7
:1001C00000BE00BE00BE00BE00BE00BE00F04BF888
:1001D000103800BEF2EB887194460110C046011041
:1001E0003402001090A31AE700202149086006C8D5
:1001F00081F3088810471F48006800282FD10DA4FC
:100200000ECC002902D000F012F8F9E71A491B4A77
:10021000002000E001C19142FCD1194988471949E9
:1002200088471949884700BEFDE701C901C29A42C3
:10023000FBD37047C0460110C0000020E80E00202C
:10024000E85401100000042000000420E8540110CC
:1002500000100420001004200000000070470B482C
:1002600004F086FE0047EFF30580C0B2704700003F
:1002700008ED00E0000000D0E80E00205C2D00201A
:10028000A9310010E50B0010D132001057560000C4
:1002900006005250ABB36053741D0110060052505B
:1002A000861C0302841D0110060052505422A29D98
:1002B0008C1D011005005250DE65F468E8540110F1
:1002C000F8B5C0460448054B10B5834203D0044B33
:1002D000002B00D0984710BDE80E0020E80E00204B
:1002E0000000000006480749091A8910CB0F591869
:1002F00010B5491003D0044B002B00D0984710BD17
:10030000E80E0020E80E00200000000010B5074CA9
:100310002378002B09D1FFF7D5FF054B002B02D026
:10032000044800E000BF0123237010BDF812002034
:100330000000000028170110054B10B5002B03D05A
:100340000449054800E000BFFFF7CCFF10BDC046E0
:1003500000000000FC1200202817011043780178EB
:100360001B020B438178027909040B43C17809060B
:10037000194343791B021343827912041343C27950
:1003800012061A43124B19605A60417A027A090226
:100390001143827A12041143C27A12060A439A6008
:1003A000417B027B09021143827B12041143C27B11
:1003B00012060A43DA60417C027C09021143827C06
:1003C00012041143C27C12060A431A617047C046E8
:1003D000781B002010B50400437A017A1B020B43FE
:1003E000817A09040B43C17A0120090619430BF0F5
:1003F000D3FD637C217C1B020B43A17C03200904F9
:100400000B43E17C090619430BF0C6FD10BDC04645
:10041000F0B5DE46454657464E46E0B5B44C8BB087
:10042000B44DB54AB54B0221B5480AF0F9FC02219A
:10043000B14AB24BB3480AF0F3FCAF4AAF4B009459
:100440000195B1480AF0EAFAAB4AAC4B0094019529
:10045000AE480AF0E3FAA84AA84B00940195AC48CC
:100460000AF0DCFAA44AA54B00940195A9480AF0C9
:10047000D5FAA14AA14B00940195A7480AF0CEFAFB
:10048000009401959C4A9D4BA4480AF0C7FAA449E0
:10049000C9200FF009FA002807D101200BB03CBC9D
:1004A00090469946A246AB46F0BD9E49DC200FF02F
:1004B000FBF902F0FFF99C4B1A685B688018594100
:1004C0000A000100994B974819605A6013000A000E
:1004D000016043600120049205930BF02DFD06009E
:1004E00001200BF0D1FC040003200BF025FD0500DA
:1004F00003200BF0C9FC8E4B6D4219009946049AFB
:10050000059B4B60EB174B61F317CB60894B404267
:100510000D6124B21D6800B20A600C838E604883AE
:1005200006F09EFA291C06F050FA071C200006F07F
:1005300097FA291C06F049FA011C8246381C06F07D
:100540002AFA06F0AFFA7C4A7C4B04F0C8FF05F0AB
:10055000B5F87B4B061C19689B4606F01FFA8046CF
:1005600006F0A0FA774A784B04000D0005F026F853
:10057000002800D0A7E0734A744B2000290005F042
:100580000FF8002816D0B0466E4A6F4B20002900A5
:1005900004F09CFF05F092F8061C06F083FA694A05
:1005A0006A4B04000D0004F0FBFF0028ECD1331C63
:1005B0004646984642465B461A60654BA03318682B
:1005C000596805F07BF84246624B51461860624B11
:1005D000381C1A6006F0E2F9FC21890506F0F5F9ED
:1005E00006F060FA06900791FC21301C890506F0A0
:1005F000ECF9414606F0D2F906F054FA04000D0079
:1006000005F07EF806000F002000290005F08EF8A6
:10061000524B32009A4604003B000D0006980799A1
:1006200004F07BFF05F04AF85346196806F0B6F966
:100630005346220018604A4F2B00061C0698079963
:1006400004F06BFF05F03AF8396806F0A7F9424666
:10065000444B38601A611A00D8609E609A46049B29
:10066000059C13605460404CE62021000FF01CF9FB
:10067000002819D0A36800219B46E3685846984695
:1006800006F0D2F9002871D00021404606F0CCF9DE
:1006900000286BD000250024210001200BF0D8F8A1
:1006A000290003200BF0D4F84946F0200EF0A6FFF5
:1006B0005146D2200EF0A2FF1A49DC200EF09EFF18
:1006C00002F0F8F8E9E6B0461E4A1F4B2000290068
:1006D00004F0F3FE04F0F2FF061C06F0E3F9194AF9
:1006E000194B04000D0004F069FF0028ECD15EE70F
:1006F000B81E85EB51B8BE3F7B14AE47E17AA43FEC
:1007000050260020F023002048290020E029002066
:100710002025002080270020B8250020C0220020AE
:10072000E01200203C1B0020F0120020400F0020AF
:10073000201B0020000500201F85EB51B81EC53F7F
:100740008C1B0020F1D4C853FB211940FB2119C098
:10075000D0110020901B0020941B0020D4200020EA
:10076000D8200020781B0020101B0020584606F0DF
:1007700099F9060040460F0006F094F9AD4AAE4BD9
:1007800004F0CBFE0022AD4B04F0C7FE02000B00CC
:1007900004000D003000390004F08FFE04F08EFFDD
:1007A00022002B0009903900300004F08FFE04F085
:1007B00085FFA34B06901C684B461820185E06F078
:1007C0004FF9211C06F001F99E4906F0EAF84B4664
:1007D000071C1A20185E06F043F9211C06F0F5F8F4
:1007E000984906F0DEF8061C011C381C06F0D6F805
:1007F000FC21890506F0E9F8391C041C301C06F0C0
:10080000CAF806F04FF98B4A8B4B04F068FE04F0EF
:1008100055FF051C06F046F902900391201C06F0D6
:1008200041F9049A059B00900191874806F0A6FCC7
:10083000291C404606F0AFF8211C8046584606F0B9
:10084000AAF806F02FF904000D0002000B007F4803
:1008500009F0EEFE22002B007D4809F0E9FE40463B
:1008600006F020F904000D0002000B00794809F0A1
:10087000DFFE22002B00784809F0DAFE311C0698D2
:1008800006F089F8099B391C8346181C984606F027
:1008900082F806F007F9040002000B006F480D0013
:1008A00009F0C6FE22002B0006006D480F0009F07B
:1008B000BFFE04000D003000390004F0FFFE414689
:1008C00006F06CF82900061C200004F0F7FE011C5D
:1008D000301C06F063F88046584606F0E3F8040042
:1008E00002000B005F480D0009F0A2FE22002B0061
:1008F00006005D480F0009F09BFE04000D0030006B
:10090000390004F0DBFE069906F048F82900061CC1
:10091000200004F0D3FE011C301C06F03FF800213B
:10092000061C404606F08EF8002836D0404606F0F9
:10093000B9F84E4A4E4B04F0F0FD4E4A4E4B04F0CF
:10094000C5FD04F0BBFE071C301C06F0ABF804002C
:100950000D00301C002106F075F800282CD0474A05
:10096000474B2900200004F0D8FD464A464B04F0CE
:10097000ADFD04F0A3FE051CFE21381C890506F020
:1009800069F800282ED0414CFE21281C890506F06C
:1009900061F800281ED03E4D7EE6404606F082F803
:1009A0003C4A3D4B04F0B9FD3C4A3D4B04F085FD0B
:1009B00004F084FE071CC7E72C4A2D4B29002000B9
:1009C00004F0ABFD374A384B04F077FD04F076FEB7
:1009D000051CD1E73549281C06F02EF8002809D05F
:1009E0002A4D59E63149381C06F026F8002810D067
:1009F000274CC9E7281C06F055F82D4A2D4B04F06A
:100A00008CFD00222C4B04F088FD04F00FFE05B293
:100A100042E6381C06F046F8254A264B04F07DFDD8
:100A20000022254B04F079FD04F000FE444224B27C
:100A3000AAE7C0461F85EB51B81EC53F0000E03F46
:100A4000000500200AD7233D4C1A0110E82600209B
:100A500018220020B028002058230020E820002081
:100A60008824002080210020182800203D0AD7A3D8
:100A7000703DF63F3108AC1C5A64BB3F333333330F
:100A80003333F73FE17A14AE47E1BA3F6786FFFFA1
:100A900099790000C3F5285C8FC2F53FC1CAA14512
:100AA000B6F3BD3FC976BE9F1A2FBD3F000080BF81
:100AB000666666666666EE3F0000E04070B5084C0C
:100AC000050023686268134300D070BD01F0F2FE98
:100AD0002A686B68121A8B4122606360F5E7C04692
:100AE000F012002010B50A4C94B0010050222000F2
:100AF00006F0B0F821005022684606F0ABF86B46CD
:100B00005022B62103480DF0EDFF14B010BDC046D1
:100B1000202000206006002070B50024214B82B008
:100B20000093214A214B0821C9200EF025FD204EBB
:100B3000204D33002A0000941421D2200EF01CFD19
:100B40001D4B2A00009314213300D3200EF014FD16
:100B500000941A4B1A4A3C21DC200EF00DFD194E70
:100B6000194D33002A0000941C21F0200EF004FDE2
:100B7000164B2A0000931C213300F2200EF0FCFCDF
:100B80000094134B134A1021E6200EF0F5FC124B93
:100B9000124A00935021124BCA200EF0EDFC02B015
:100BA00070BDC046BD0A00103DFB001051FB001097
:100BB00079FB001065FB00105D030010A1FB001025
:100BC0008DFB0010C9FB0010B5FB0010D503001011
:100BD000F1FB0010DDFB0010E50A001005FC001021
:100BE00019FC0010F0B5DE4657464E464546E0B5C6
:100BF000D3B042AC23003CAA3BA9044800F0D6FA8B
:100C0000002807D10149024802F064FB48E80100CE
:100C100044180110429A3C993B9800F08BFA06F078
:100C2000B9FAFC4801F09AFDFB4806F0C9F9FB4807
:100C300006F0C6F90AF0EEFEF94806F0C1F90AF02E
:100C400083FFF84DF849280009F072F9F74806F0DB
:100C5000B7F90321042000F073FC0321052000F004
:100C60006FFCF34806F0ACF900220121042000F0EB
:100C700089FC01210022052000F084FCED4806F0EB
:100C80009FF9192000F0ECFCD02380221B0692046F
:100C90005A62E94806F094F920000BF08BFC00231F
:100CA00001266361236398468833A3842800403378
:100CB000A361E6610CF046FF642001F04FFD302295
:100CC00046A96846439505F0C5FF6168A268E368D8
:100CD00042980CF05DFFFA20400001F03FFDD74B39
:100CE00044A999463822684605F0B4FF6368429AE1
:100CF00048460BF05FFD642001F030FD3200042116
:100D0000CF4B162000F056FCCE4806F059F964206F
:100D100001F024FDCC4806F053F90EF0B3FB0EF0C1
:100D2000B7FDFFF7F9FE642001F018FDC74806F093
:100D300047F9C74809F09CF8FA20400001F00EFD81
:100D4000C44B14A89B4609F04DFB982214A95846A1
:100D500005F080FFC04BC14E9A46186805F0A2FE10
:100D60005346BF4F04000696079704960597986868
:100D70000D0005F097FE534602900391586805F068
:100D800091FE2200009001912B0058460AF0DAF8FB
:100D9000B44B14A89B4609F025FB982214A9584689
:100DA00005F058FFB04B9A46186805F07BFE534695
:100DB0000696079704960597040098680D0005F0BD
:100DC00071FE534602900391586805F06BFE2200B5
:100DD000009001912B0058460AF0B4F8A34B14A8D8
:100DE0009B4609F0FFFA982214A9584605F032FFF5
:100DF0009F4B9A46186805F055FE5346069607978E
:100E000004960597040098680D0005F04BFE5346C4
:100E100002900391586805F045FE22000090019170
:100E20002B0058460AF08EF8924B14A89B4609F006
:100E3000D9FA982214A9584605F00CFF8E4B9A4611
:100E4000186805F02FFE53460696079704960597F7
:100E5000040098680D0005F025FE534602900391AA
:100E6000586805F01FFE2200009001912B005846A3
:100E70000AF068F8814B14A89A4609F0B3FA982250
:100E800014A9504605F0E6FE7D4B9B46186805F018
:100E900009FE5B4606960797049605970400986836
:100EA0000D0005F0FFFD5B4602900391586805F0C8
:100EB000F9FD2200009001912B0050460AF042F803
:100EC000704C714B704A0093019450466F4B09F07F
:100ED0000FFD6F4C14A809F085FA982214A9200080
:100EE00005F0B8FE6B4D286805F0DCFD0696079707
:100EF0000496059712901391A86805F0D3FD02900F
:100F00000391686805F0CEFD129A139B0090019141
:100F100020000AF017F85C4A5A4B20000092019317
:100F20005A4B594A09F0E4FC5B4C14A809F05AFAF0
:100F3000982214A9200005F08DFE584D286805F070
:100F4000B1FD069607970496059712901391A8682D
:100F500005F0A8FD02900391686805F0A3FD129AC0
:100F6000139B00900191200009F0ECFF464A454B8D
:100F7000200000920193454B434A09F0B9FC4849CF
:100F800014A88A4609F02EFA982214A9504605F0B2
:100F900061FE444908688B4605F084FD0D00594602
:100FA00006960797049605970400886805F07AFD71
:100FB000029003915946486805F074FD22000090A4
:100FC00001912B00504609F0BDFF2F4A2D4B504692
:100FD000009201932C4A2D4B09F08AFC642001F009
:100FE000BDFB01F0BBF83CAB0293434601932E4B93
:100FF0002E4A0093002301F0BBF92D4805F0E0FFD5
:10100000A0234B449B4698234B449A4690239C46EE
:10101000284C51E0DC050000481701105C17011056
:101020007017011060060020801A06008417011056
:10103000A0170110B8170110D8170110D011002007
:1010400061E20010EC1701100018011010180110D7
:1010500039F70010E8200020340500207B14AE474B
:10106000E17AA43F8021002054050020E8260020DA
:1010700014050020B02800207405002088240020DA
:10108000240500209999B93F9A9999999999B9BFDE
:101090001828002044050020182200200405002004
:1010A000582300206405002011040010409C00001B
:1010B00030180110201B00201B4E1C4DE144E3683A
:1010C000F068984605F0EEFCA76810901191B068A2
:1010D00005F0E8FC0E900F91286905F0E3FC0C90F8
:1010E0000D91E86805F0DEFC0A900B91A86805F008
:1010F000D9FC5B46089009911A685B6806920793D1
:1011000053461A685B68049205934B461A685B68FD
:101110000292039323693A000093636904480193A0
:10112000434606F02BF8CAE7101B0020781B00206E
:1011300078180110F0B583B005000E00140000F01F
:101140003FFB002801D003B0F0BD154F01223B004A
:1011500000970121053002F0DBF833002A000094EB
:101160000121104802F0DEFA21002800714303F04B
:1011700055FF04000C4B002200930221042002F0D2
:10118000C7F82300009400220121052002F0C0F8D6
:1011900000973B0002220021062002F0B9F8D2E7B6
:1011A000006CDC0200800240001BB700F0B5DE4698
:1011B00057464E464546E0B5070085B004200393E8
:1011C0000191029202F0A8FAFA21890003F026FFA9
:1011D00032238346FF339A4684005C44A401434B88
:1011E000434AE318062593420ED901235B429C46ED
:1011F0005B46E244E41A5346002BF0D1002059E04C
:10120000002900D170E045466E1C3100200071437A
:1012100003F004FF87423ED0002DE6D031002000CD
:10122000694303F0FBFE87424BD06B1E9846002BB0
:10123000E9D019002000714303F0F0FE874243D04B
:10124000AB1E9946002BDED019002000714303F03D
:10125000E5FE87423CD0EB1E9946002BD3D0190007
:101260002000714303F0DAFE874235D02B1F9946E8
:10127000002BC8D019002000714303F0CFFE874235
:101280002ED0052DBFD03100200003F0C7FE8742CD
:10129000B6D04546B8E70029BED13500012063012C
:1012A0001B1B9B001C19019BE4001C60029B1E6021
:1012B000039B1D6005B03CBC90469946A246AB46D8
:1012C000F0BD0029B1D1E9E70029B9D14546E5E7EC
:1012D0000029C0D14D46E1E70029C7D14D46DDE7E1
:1012E0000029CED14D46D9E70125D7E7508EF4FF2E
:1012F00050F80C00D0231B061B68F0B59A00454639
:10130000904641468A4ADE465258574693465A1EF0
:10131000934130224E465B421A40864B00249C4645
:10132000854BE0B59A4683B062440092E208130010
:101330002600083300999B005D580836002D24D004
:10134000A64224D95B46002B2AD001230F279946B9
:101350003900294013D04B4652464046A34012580C
:101360001A420CD10722080022409200904002004D
:10137000E30872483C339B001A502000D8472D09DF
:101380000134002D01D0A642E2D8202E01D0340035
:10139000CCE703B03CBC90469946A246AB46F0BDB4
:1013A0000F232B4007D001214746A1406248C05976
:1013B000084200D1A8E02B09611C002BE5D08E4229
:1013C000E3D90F2213406BD12B0AA11C002BDCD0D8
:1013D0008E42DAD90F22134073D12B0BE11C002B64
:1013E000D3D08E42D1D90F2213407BD12B0C211D9B
:1013F000002BCAD08E42C8D90F2213400FD04746C7
:101400000E3A8A404C48C059104208D10720CA08F9
:10141000014089008B403C324849920053502B0DCB
:10142000611D002BB1D08E42AFD90F22134006D0E0
:1014300047460E3A8A404048C05910426DD02B0EA4
:10144000A11D002BA1D08E429FD90F2213400FD097
:1014500047460E3A8A403848C059104208D1072002
:10146000CA08014089008B403C32344992005350F5
:101470002D0F0734002D00D187E701234146A340FB
:101480002D4A525801921A4200D07EE70722E30803
:101490001440A400A5403C33284A9B009D5074E7AB
:1014A00047460E3A8A402448C05910428CD1072042
:1014B000CA08014089008B403C32204992005350B9
:1014C00082E747460E3A8A401B48C059104284D1F1
:1014D0000720CA08014089008B403C32174992001E
:1014E00053507AE747460E3A8A401348C059104293
:1014F00000D07BE70720CA08014089008B403C32BE
:101500000E499200535071E70721214089008B401A
:101510003C320A49920053504DE70720CA08014067
:1015200089008B403C3205499200535087E7C04602
:10153000CC1A0020004101408820002000400140DA
:10154000094A830094464022634410B51C68C000D9
:101550006240C02414408022520113431C60034B9C
:101560009C466044416010BD04C001400040014001
:10157000034BC0009C46604443681F2018407047DE
:10158000004001400A4B80009C460423604400292F
:1015900001D00C230821002A00D10B00026853401F
:1015A0000C221A4080235B01184302607047C0463A
:1015B00004C00140F8B51D00D0231B061B681400B1
:1015C0005A1E934130225B421340214AC60894467A
:1015D000072202409200914032001E483C32634490
:1015E0009200B60011509B19002C11D0802292015C
:1015F00013431960D0231B061E68174FB600BB5952
:10160000002B11D0002D1ED0BD51002C16D1F8BDDD
:10161000C022920113431960D0231B061E680E4F8F
:10162000B600BB59002BEDD1002DEED000220B49A6
:101630000D20BD5100F064F9002CE8D001210D20EF
:1016400000F0F0F8E3E705490D2000F03DFADBE794
:101650000041014000400140CC1A0020F51200106A
:101660000123D0228340120693629361094A8300CA
:101670009446402263441968C0004A40C02111408A
:101680008022520113431960034B9C46052360449A
:101690004360704704C0014000400140EFF31080F8
:1016A00072B6034A1368002BFCD0BFF35F8F7047FC
:1016B0002C0100D0BFF35F8F0022024B1A6080F331
:1016C000108870472C0100D0CB08C25C0723012092
:1016D0000B4098401040431E9841C0B27047C0462E
:1016E000F8B5EFF3108772B60D4E3368002BFCD0BF
:1016F000BFF35F8F0725CB08C01801230D40AB4017
:101700001D000478254007D123430370BFF35F8F8A
:10171000356087F31088F8BD100001F0DBFDC0468E
:101720002C0100D0F8B5CE4647468C4680B5EFF385
:10173000108872B6214D2C68002CFCD0BFF35F8F4F
:101740009A422CD80721012511408D40D408041954
:10175000267835421FD007218946063909E04D46D3
:101760000F001540AF40D408041926783D003742D9
:1017700011D001329342F2D201204042BFF35F8F79
:1017800000220E4B1A6088F3108800280FDB0CBC77
:1017900090469946F8BD354325701000EEE7BFF33B
:1017A0005F8F00232B6088F310880120404263463E
:1017B000002BECD0089801F08DFDC0462C0100D024
:1017C000024B18688007C00F7047C04600C0064033
:1017D0000021044B044ABFF35F8F02C39342FAD146
:1017E0007047C046000100D0800100D0044A107844
:1017F000431CDBB2172B00D9102313707047C0466F
:101800008405002000B5054B83B001000093182229
:101810001F230348FFF786FF03B000BD5C1A0110C9
:10182000D41A002001238340002904D0034A136006
:10183000034A13607047034A1360FBE780E200E04D
:1018400000E100E080E100E001228240034B1B68E0
:101850001340581E8341D8B27047C04600E100E0F3
:1018600001238340014A13607047C04600E200E054
:10187000084B10309B688000C358002B07D0064AE5
:1018800000209B1A2F229A424041C0B2704700208C
:10189000FCE7C04600ED00E088050020024B103058
:1018A0009B688000C058704700ED00E070B50D00E7
:1018B000EFF3108672B60F4A1368002BFCD0BFF30B
:1018C0005F8F0D4B10309B6884001B590B4A93426D
:1018D00003D09D4201D001F015FD074B9B681D51BF
:1018E000BFF35F8FBFF35F8F0022024B1A6086F356
:1018F000108870BD240100D000ED00E0CD01001083
:10190000F8B557464546DE464E468A46E0B590460F
:101910000700EFF3108972B6604A1368002BFCD001
:10192000BFF35F8F00205E4B18569B46002800DAFD
:10193000A2E05A4644005B4D2418A4002E19B37946
:1019400010371370584BBA009B68934699584B1B3D
:101950002F2B41D801230A009A43D379944643455B
:1019600014D90627D7571300002F06DA8DE0062773
:10197000DF571A00002F00DA87E07B00DB199B009D
:10198000EB18DF794745F2D8002A51D1474A634620
:101990005B1B5B415A43120D454BA11C3380454BE9
:1019A0006918043B5B1A1B0543495B0D0B437380AD
:1019B00063460434043B2D195D1B43462D05F3712A
:1019C0006D0D53462943B180B27101216246B36067
:1019D0003A4B3143136018E0394B994252D1344BA2
:1019E00002343380334B2D19043B5D1B2D05324BE4
:1019F0006D0D1D43334B0121B380FF23B37143466B
:101A0000F37153467580B36031435A46264B9B6849
:101A10009950BFF35F8FBFF35F8F00221F4B1A6097
:101A200089F310883CBC90469946A246AB46F8BD67
:101A30000627D757131D9C46002F2CDB04342D1985
:101A4000E024938824025B051B1563445B1B1B0584
:101A50005B0D23436546341F641B2405164D640D3E
:101A60002C4394809071B3804346F3715346134ADC
:101A7000B7713260B360C8E701F044FC5B460020F8
:101A8000185656E701F03EFCA9E71A1D94461A00C5
:101A9000BD231B02DEE7BD231B02DBE7240100D0D0
:101AA000E12000208805002000ED00E0AAAA000047
:101AB00000A1FFFFB805002000E0FFFF01488047BC
:101AC000CD01001000BDFFFFF0B54546DE4657468C
:101AD0004E46E0B50D0083B0EFF3108A72B65A4A55
:101AE0001368002BFCD0BFF35F8F10229146814416
:101AF0004A46564B96009B689C59554B98469C42CB
:101B000005D0AC4216D0534FE31B2F2B14D94F4BAB
:101B10009B689C51BFF35F8FBFF35F8F00224A4BDE
:101B20001A608AF3108803B03CBC90469946A246DE
:101B3000AB46F0BD1C00EAE7012383409B465A46B2
:101B4000454B1B681A4000925A46444B1A60BFF33B
:101B50005F8FFEF788FB0190002803D0814501D0FC
:101B600001F0D0FB0123220006219A4393685156CD
:101B70009D420AD152E04B005B1806219B00FB18E6
:101B800098685956A8420FD01A000029F3DA009B32
:101B9000002B05D05A46324B1A602F4B1A60B6E71D
:101BA0005A462E4B1A60B2E7002921DB4A00501832
:101BB00080003D188046A8689860E879D8710620B2
:101BC00028569871002826DBAD88F81A6D052D156A
:101BD00045444019E0250005400D2D02284398801A
:101BE0005218204B9200BF181A781970BA71CEE7BC
:101BF0000199002918D1002A23D0FF3191711A4987
:101C0000918018490A789A71184ADB1B5B415A4344
:101C1000120D0A70BBE7BD200002E0E713000029A7
:101C2000C4DA019A002A0CD0114A1249D21A083A91
:101C30005002400D014399800F4952080A43DA804F
:101C4000A5E74446DDE7C046240100D000ED00E0F2
:101C5000CD0100108805002000E100E080E100E0F7
:101C600080E200E0E120002000BDFFFFAAAA000002
:101C7000C205002000F0FFFF00F8FFFFF8B50125C6
:101C800004000543FEF7EFFAEFF3108672B6214A1F
:101C90001368002BFCD0BFF35F8F1F4B1F4A21003E
:101CA000C91A49414A43120D1D4980008F6852B23A
:101CB0003F58AF421CD00621595691421CD01221E8
:101CC0005956914222D01E215956914220D02A21A4
:101CD00059560320914210D0124B19781A70A171F5
:101CE000BFF35F8F00220B4B1A6086F31088F8BD9C
:101CF0008B680D491950EFE7002041000918890051
:101D00005B18FF21997109499980E5E70120F4E703
:101D10000220F2E7240100D088050020AAAA0000D2
:101D200000ED00E0E1200020CD01001000BDFFFF2C
:101D3000054B064A1360064A136053609360D360F4
:101D400013615361936170478080808000E400E0FC
:101D500004E400E0D02300B51B0601001868074B1F
:101D600083B01818064B002200930523FFF7DAFC16
:101D7000002801DB1F23181A03B000BDCC2000206F
:101D8000781A0110024B9C4661448900016070473B
:101D90004000003483680B4810B5844661446244B7
:101DA000090112019A18591854684B6801209C4285
:101DB00001D802D00020C0B210BD12680B689A4250
:101DC000F9D8F7E7FFFFFF0F10B508000B690C000B
:101DD0009847002802D02068616810BDE0600021AB
:101DE0000020FAE70A4B1968EFF3108072B60A6810
:101DF000002AFCD0BFF35F8F1B68BFF35F8F002208
:101E00001A6080F3108840BF002000217047C04650
:101E10009C200020F8B5454657464E46DE46E0B5C4
:101E200014000DAA12781D000CAB92461B780268B4
:101E300081469046002B13D1977B002F4AD0404615
:101E40007E001268F619033E921951783B008173A7
:101E5000002900D1C173002191705170117003E00D
:101E60001F005E00F618033E2E4A94464A469268CA
:101E7000634494461B010A9A63449A600B9A1C605F
:101E80005D60DA60434600221B689B199A705A70A5
:101E90001A7043465B7B9B46002B2BD043463A008F
:101EA000986859465B6898475B4642465B005B44CE
:101EB000033B1268002814D0D31896195A46B27002
:101EC0001A78002A00D072701F705A4643465A731F
:101ED000BB4511D038003CBC90469946A246AB4663
:101EE000F8BDD31896199F703278002A00D05A7026
:101EF0005B46337043465F734B462200187D2B00D0
:101F000000F06AFD041E07D05346002B04D14B4657
:101F10003900186801F0DEF80E9B002BDAD01C7037
:101F2000D8E7C046FFFFFF0FF0B5DE4657464E46E6
:101F300045460023E0B58DB00A936D4B8200D4581E
:101F400000239B460B9000F0B5FC6268EFF3108510
:101F500072B61368002BFCD0BFF35F8F23689C46DA
:101F60005B7B9946002B00D16BE0A268614B9046E9
:101F70004B441B01984443461E685F6832003B0097
:101F8000121A8B41002B65DD3B0032000B9800F0EC
:101F900023FD0023002208920993002300279A467C
:101FA0006368BFF35F8F5A461A6085F31088534603
:101FB000002B08D10028C6D10DB03CBC90469946F4
:101FC000A246AB46F0BD0A9B390018024B461843A7
:101FD000D047626806900791EFF3108872B65646B4
:101FE00045461368002BFCD0B246A846BFF35F8F6E
:101FF0000699079A131E49DB194302D02369002B67
:102000005FD12368DA7B002A07D051008A1819684B
:102010008C4649466244033A51704A46DA73E26894
:102020004B469446013B63441A7801321A705B4672
:1020300023616368BFF35F8F5A461A6088F3108884
:1020400081E70023002208920993002300279A4683
:102050000020A5E7002B01D1002A95D10021604680
:1020600000F05AFF43461A685B680892099343469A
:102070009B689A464346DF68E3684B44013B1B7804
:102080000A931B0203432361002089E72369002B85
:10209000B7D0089D099E6D1A96412A003300089D0D
:1020A000099E9E4218D81BD05946049101210391E4
:1020B000494602915146019700912000FFF7AAFE80
:1020C000B5E700F0F7FB069A079B12184B419942BF
:1020D00002D8E9D19042E7D901225242D317E3E76F
:1020E00008999142E0D901225242D317DCE7C04659
:1020F00078200020FFFFFF0F10B5124C6368002B03
:1021000004D00A211048FFF73DFE10BD23000F4AFE
:102110001021206800F022FD032000F0BFFB032007
:1021200000F0CEFC0A49032000F010FCFFF75EFB34
:10213000084B9C46032360442375074B8000606076
:10214000DC60DEE7D00500209C200020951D0010FB
:10215000291F0010400000347820002000487047FC
:10216000D0050020F0B557464546DE464E46E0B560
:1021700085B00092019310AB1B78002703930023D6
:1021800080469A4643465A68EFF3108972B6136840
:10219000002BFCD0BFF35F8F43461D68AC7B002C47
:1021A0004FD0660036192B68033E9B195A78AA73E4
:1021B000002A00D1EA7342469F705F701F709268D8
:1021C0004E4B94460099019AE3181B016344196031
:1021D0005A600E9A9A600F9ADA602B689B199F706A
:1021E0005F701F706B7B9B46002B42D02200190052
:1021F000A8686B6898475B465B005B44033B2A68B2
:1022000000282DD0D31896195A46B2701A78002A91
:1022100000D072701C705B466B735C452AD04346DD
:10222000DB681B19013B187843465B68BFF35F8F7F
:102230001F6089F310885346002B2AD100022043E7
:1022400007E05B68BFF35F8F1C6089F31088012093
:10225000404205B03CBC90469946A246AB46F0BD14
:10226000D31896199C703278002A00D05A705B46B9
:1022700033706C734346187D009A019B00F0ACFBF1
:1022800082460028CBD043462100186800F022FF88
:10229000C5E7039B002B2FD00E9B0F99002098477A
:1022A00003000B4328D004000D1E0DDA009801999D
:1022B00002000B00121BAB41994213D818D00092B8
:1022C0000193039B9A465DE700F0F4FA24184D4110
:1022D00023002C0000930194A94203D8F1D1009B64
:1022E0009842EED901235B42DC1700930194E8E7A2
:1022F00000999142E3D9F5E70020AAE7FFFFFF0F1D
:10230000F8B542680400EFF3108572B61368002B2D
:10231000FCD0BFF35F8FFF232068CEB2427B0B401F
:10232000B24208D007685A00BC46D2186244033A49
:102330009278002A11D0E268090A94466344013B6E
:102340001B78C9B28B420ED000206368BFF35F8F49
:1023500000221A6085F31088F8BD23698B42F3D1FF
:1023600022610020F1E7310000F0B4FEEDE7C04645
:10237000F0B54E464546DE465746E0B585B0109965
:10238000060088461100194300D1F3E0D817070072
:1023900057403C0007005F4001003D00241A8D417A
:1023A00041460E980A600F9A4B608E6008614A6140
:1023B00000F080FA24184D4123002C000093019472
:1023C000A94200D9E5E000D1DFE000239946434669
:1023D0000025B0461E00109343465B68EFF3108A59
:1023E00072B61A68002AFCD0BFF35F8F43461F689D
:1023F000BC7B002C63D063001B19DA1E94463B683B
:10240000039263445A78BA73002A00D1FA734A4699
:102410009A705A701A7042469268634B94460099BB
:10242000019AE3181B01634419605A605F4A4946E8
:102430009A60039ADE6094463B68634499705970D1
:1024400019707B7B9B46002B00D183E01900220092
:102450007B68B86898475B465B005B44033B002899
:1024600000D16DE003993A688C465946D31862440E
:1024700091701978002900D085E01C705B467B7351
:102480005C4568D043464246DB6852681B19013BF5
:102490001B78BFF35F8F494611608AF31088002DC7
:1024A0001BD1B0461B021C43013543462800DC60AB
:1024B00005B03CBC90469946A246AB46F0BD10968E
:1024C0004646109B98467368BFF35F8F1C608AF383
:1024D0001088012400256442E7E7300033699847FB
:1024E000071E02D1B0460024DFE73268736811008E
:1024F000194354D014001D1E0CDA009801990200F3
:102500000B00121BAB4199420FD812D03D00009234
:10251000019361E700F0CEF922002B0012184B4125
:10252000994202D8F2D19042F0D901225242D317F7
:10253000ECE700999142E9D901225242D317E5E72D
:102540003968039ACB188A189C701178002916D123
:102550005B4613707C734346187D009A019B00F024
:102560003BFA051E00D18DE743462100186800F0B4
:10257000B1FD87E7012400250122002310E75970EF
:102580005B461370E6E7517077E7009B984200D8EE
:102590001BE701235B42DC170093019415E7B0466B
:1025A0003D00002481E7C046FFFFFF0FC91D00105A
:1025B000F0B504000D0006267642F717C646361918
:1025C0006F4100B584B08F4214D811D000F072F979
:1025D00032003B00121A8B41002B15DC002B3ED041
:1025E0002000290000F0A2F904B004BC9046F0BD20
:1025F0008642EBD90026002700F05CF932003B0050
:10260000121A8B41002BE9DD002302930193154B35
:102610003200009314483B00FFF7A4FD0028DFDBE5
:1026200000239846BC46114A114F7B6A9C4504D84A
:10263000B96AB142D4D29C45D2D11168EFF310806F
:1026400072B60B68002BFCD0BFF35F8F1368BFF32B
:102650005F8F4146196080F3108820BFE5E7002AAC
:10266000BED0D1E7E51D0010D00500209C20002041
:1026700000400540F0B5C64600B584B004000D002A
:1026800000F018F924184D41A9421DD81AD0062689
:102690007642F71736196F41AF4251D9002600270D
:1026A00000F008F932003B00121A8B41002B19DCB4
:1026B000002B42D02000290000F038F904B004BCFF
:1026C0009046F0BDA042E2D907267642F71700F007
:1026D000F1F832003B00121A8B4101246442E517E5
:1026E000002BE5DD002302930193184B3200009389
:1026F00017483B00FFF736FD0028DBDB0023BC4614
:1027000098461449144A4B6A9C4504D8886AB042DA
:10271000D0D29C45CED11068EFF3108372B6076813
:10272000002FFCD0BFF35F8F1068BFF35F8F474669
:10273000076083F3108820BFE5E7002ABAD0D1E70D
:10274000AF42ADD1A642A9D8AAE7C046E51D001008
:10275000D0050020004005409C20002070B50600F8
:1027600000F0A8F8FA2204000D00920000233000C7
:10277000002104F0F3F8001969418D4205D802D018
:10278000FFF716FF70BD8442FAD901204042C117FD
:10279000F6E7C046002370B584B0114E0293019352
:1027A000104B0500009302000B0030000C00FFF7F7
:1027B000D9FC002804DD20BF01003000FFF7A0FD98
:1027C000094A0020536AA34203D3926A0130AA4205
:1027D00001D304B070BD1C1B601E8441E0B2F8E759
:1027E000D0050020E51D001000400540F0B5C646AC
:1027F00000B5EFF305833F22134018001038EFF3C4
:10280000108772B61F4D2A68002AFCD0BFF35F8F75
:10281000012211008140884644461B494C631B4CF1
:102820002678A4463400C440224015D04C6A18498A
:10283000820051588C4217D3164BD25843469E43C0
:1028400063461E70BFF35F8F00232B6087F31088F1
:10285000002A06D0904704E0BFF35F8F2A6087F319
:10286000108804BC9046F0BD0B4A9B00944663441C
:102870001A681A60BFF35F8F00232B6087F31088FC
:10288000EFE7C046280100D000400540E4200020CA
:10289000A8200020BC190020D03F054010B5010041
:1028A000024A0348FEF71CFF10BDC046A01A0110E3
:1028B000DF200020044A516A00E01900906A536A40
:1028C0009942FAD17047C04600400540164A70B59B
:1028D000546A00E01C00956A536AA342FAD12A00A8
:1028E00023008018594105000E008C4202D819D1EE
:1028F000824217D9012201256D42EE1752420A4C3D
:10290000636A9342FCD39A420BD1074B2800996A21
:10291000A94203D305E0996A814202D2596A9142E1
:10292000F9D070BD3200EAE700400540064A536A1C
:102930009942FCD807D1044B02E05A6A914202D175
:102940009A6A8242F9D370470040054070B504008E
:102950000D00EFF3108672B61A4A1368002BFCD0F4
:10296000BFF35F8F002D1BD02000FEF797FF1649A5
:1029700088420AD02000FEF799FF01212000FEF7CF
:1029800051FF0123A340114A1360114BA400E550ED
:10299000BFF35F8F00220B4B1A6086F3108870BD67
:1029A0000B4BA200D5500122A2400A4920000B780F
:1029B00093430B700449FFF787F800212000FEF7CE
:1029C00031FFE5E7280100D0ED2700103860054011
:1029D000BC190020E4200020F0B5D6464F464646FC
:1029E000324CC0B5656A00E00D00A66A616AA94272
:1029F000FAD1AB4209D806D0012420001CBC904675
:102A00009946A246F0BDB242F6D9EFF3108972B6EC
:102A1000274C21680029FCD0BFF35F8F0126254990
:102A200086408C460978244D0F0037438846F9B21A
:102A30008A46614654460C701C49041DA4004E632E
:102A40006250840063510D6A002435421AD04D6AE9
:102A500000E025008F6A4C6AAC42FAD1AB4219D82B
:102A600001D1BA4216D8C2451DD0104B134A1E627E
:102A70005E631F2318401E3B83401360634642463B
:102A800001241A70BFF35F8F0022094B1A6089F38B
:102A90001088B2E70024BFF35F8F0022044B1A6056
:102AA00089F31088A9E70124ECE7C04600400540FF
:102AB000280100D0E4200020A820002080E200E0CF
:102AC00010B5EFF3108472B60A490B68002BFCD0E6
:102AD000BFF35F8F01238340074A084813620278DF
:102AE0009A430270BFF35F8F00230B6084F310885A
:102AF00010BDC046280100D000400540E420002061
:102B000070B506000D00140000291ED0002A1ED04A
:102B100073688068984763006A001B195219033B69
:102B2000033A3168002808D0CB188A189D701178B4
:102B300000290ED11470280008E08A18CB18947070
:102B40001978002900D051701D70200070BD080058
:102B5000FCE7597028001470F8E7C046F0B5DE466F
:102B600057464E464546E0B58360002389B0426033
:102B7000026806914373C9B20133059101738373EF
:102B8000C1730492012900D8A4E00A004B1ED9B2F7
:102B9000931E0791072B00D8AEE00025CB080393C6
:102BA000049B564C591C564B56489B46564B9A46CE
:102BB000564B9C46564B0293524663465F465E46D2
:102BC00062401A40504B2740FB185A40064053467B
:102BD00001966646434033404B4E0A70B046019E14
:102BE0000135B146C844464673401604360ECE70D1
:102BF0001602120E4A721A04120E0B73CA731A02CC
:102C00001B0E4B75029B360E5C4063461C40404BCE
:102C1000120E9846029B47445840634618404B4664
:102C200043445840039BEDB28E718A747C40183146
:102C3000AB42C1D1079907230A009A43531CDBB268
:102C4000914247D0049C5A00A446D218591C6244B1
:102C5000059DC9B2033A51708D423BD94A005218C2
:102C6000981C6244C0B2033A5070854232D9420087
:102C70001218D91C6244C9B2033A51708D4229D945
:102C80004A005218181D6244C0B2033A507085427F
:102C900020D942001218591D6244C9B2033A51703A
:102CA0008D4217D94A005218981D6244C0B2033AA7
:102CB000507085420ED942001218D91D6244C9B223
:102CC000033A51708D4205D94A0052186244033AC2
:102CD00008335370FF23069A13405900C918049B08
:102CE0009C460023614403394B7009B03CBC9046BC
:102CF0009946A246AB46F0BD0123A3E701020304B7
:102D00007F7F7F7F050607080101010180808080A9
:102D10000808080870B50400002907D04B000068B7
:102D20005B18033BC3185A78002A01D1080070BD14
:102D30005500AD18033D40190025467845705D707B
:102D40002000FFF7DDFE310005002000FFF7E2FF65
:102D5000290002002000FFF7D3FE0100E6E7C0468D
:102D6000F0B54E464546DE465746E0B50E007400C7
:102D70000168A41985B0033C01920A190500107876
:102D800000284CD043001B18033BCB185F78BC468F
:102D9000002F16D1019C002C3ED0EC7B002C04D0DF
:102DA00063001B19CB18033B5E70EE7300282FD114
:102DB0000023537005B03CBC90469946A246AB46F2
:102DC000F0BD7A006244033A89184A78934600229B
:102DD0004A7090465A7001003A002800FFF790FEB2
:102DE0005B468146002B07D05B0029685B44033BB0
:102DF000CB185A78002A16D15A4649462800FFF7C0
:102E00007FFE2968019B0A19002BC6D10028CFD06C
:102E100043001B18033BCB1800219970C8E7019BA6
:102E2000002BBAD1C4E7500080180338091848783D
:102E3000824640464870587059462800FFF760FEA9
:102E400053468346002B07D05B0029685344033B5D
:102E5000CB185A78002A06D1594652462800FFF767
:102E60004FFE8346C8E750008018033809184046D3
:102E70004F7848705870514628000297FFF740FE7F
:102E80008246002F08D0BC467B0029686344033B80
:102E9000CB185A78002A06D15146029A2800FFF72B
:102EA0002FFE8246D8E750008018033809184046A4
:102EB0004F7848705870029928000397FFF720FE5A
:102EC0008046002F08D0BC467B0029686344033B42
:102ED000CB185A78002A06D1039A41462800FFF7FA
:102EE0000FFE0290D8E70320504303380918002052
:102EF0004F784870587003992800FFF701FE390099
:102F000002902800FFF706FF029902002800FFF751
:102F1000F7FD0390E0E7C046F0B54E464546DE4675
:102F20005746E0B5467B050074000068A419033CD1
:102F300085B002190191117800294ED04B005B1821
:102F4000033BC3185F78BC46002F18D1019C002CAE
:102F500040D0EC7B002C04D063001B19C318033B4A
:102F60005E70EE73002931D1002330005370697315
:102F700005B03CBC90469946A246AB46F0BD7A00EF
:102F80006244033A80184278934600224270904689
:102F90005A7028003A00FFF7B3FD5B468146002BCC
:102FA00007D05B0029685B44033BCB185A78002AA2
:102FB00017D15A4649462800FFF7A2FD019B0100A0
:102FC00028680219002BC4D10029CDD04B005B1812
:102FD000033BC31800209870C6E7019B002BB8D1B3
:102FE000C2E75000801803380918487882464046E6
:102FF0004870587059462800FFF782FD53468346B3
:10300000002B07D05B0029685344033BCB185A7848
:10301000002A06D1594652462800FFF771FD834623
:10302000C7E7500080180338091840464F784870A9
:103030005870514628000297FFF762FD8246002F24
:1030400008D0BC467B0029686344033BCB185A7800
:10305000002A06D15146029A2800FFF751FD824608
:10306000D8E7500080180338091840464F78487058
:103070005870029928000397FFF742FD8046002F01
:1030800008D0BC467B0029686344033BCB185A78C0
:10309000002A06D1039A41462800FFF731FD02902D
:1030A000D8E7032050430338091800204F784870B0
:1030B000587003992800FFF723FD3900029028007B
:1030C000FFF728FE029902002800FFF719FD039080
:1030D000E0E7C04670B5040000292CD0437B8B424A
:1030E0002ED0056848004018033828188278002A36
:1030F00021D053009B18033BEB181A788A4202D167
:103100001BE0002A08D053009B18033BEB185A78A9
:103110008A42F6D142785A700023012283704370AC
:103120002000FFF71DFE617B02002000FFF7E8FC96
:103130006073012000E0002070BD42781A70EBE758
:1031400001221900FFF70CFE60730120F4E7C0466E
:1031500010B50400FEF74AFB01002000FEF712FE46
:10316000FF232371BFF35F8F10BDC04610B504006D
:10317000FEF73CFB01002000FEF704FEFF23A380C6
:10318000BFF35F8F10BDC04610B504000120FEF7ED
:1031900039FB044B9C46604480002060BFF35F8F86
:1031A00010BDC046400000342D4B2E4A70B51A6049
:1031B0002D4A2E4B2E491A6010008B689843FBD184
:1031C0002C4C2D4B9C4209D2013B1D1BAD080135F7
:1031D000AD002D1908CC9847AC42FBD100F03CF96A
:1031E000264A224B1A60224A9368DB018033FBD1C6
:1031F0004022234B234D24489A675A671A67DA66A0
:10320000A84205D30EE0FFF7B1FF2000AC4209D27F
:10321000040003680834002BF5D1FFF799FF200064
:10322000AC42F5D3194C1A4DA168C022280003F016
:1032300011FDA560FEF7CCFAFEF77AFDFEF75CFF04
:10324000144C154B9C4209D2013B1D1BAD080135A6
:10325000AD002D1908CC9847A542FBD170BDC046E2
:1032600000E00040BFCDFBFEFE7F3C0000F00040D0
:1032700000C00040D00E0020E00E0020FFFFFF0144
:1032800000F00140D00E0020C00E002000ED00E054
:1032900000000020E00E0020E80E0020094A13681C
:1032A000002B06D008491818884208D8106018006A
:1032B0007047064B0449181813608842F6D9012359
:1032C0005B42F4E7101C0020000004205C2D00206D
:1032D00000BEFDE70FB400B5084883B003F070FEF0
:1032E000049B002B07D005A91800019101F020FED6
:1032F000034803F065FE00BEFDE7C046D01A01108A
:10330000FC2A011010B50148FFF7E4FFC41A0110B0
:10331000F0B5DE46574645464E46E0B583B0170049
:103320000C9A05008B469A4200D971E01A0E92461B
:103330001E020C9A00233000514601F0B1FE444BAE
:103340006C009C466419A400644463688046834210
:1033500000D260602B1FDAB2C0239B01019223438D
:10336000012A33D9802212011A603A4BAD00595913
:10337000994600294ED04B46586901F04FFE013066
:103380000138FDD123687F017B40E0271F40802367
:10339000019A5B0123431F60012A2CD980238022DC
:1033A0009B01234312011A6043464246636030008A
:1033B0000023514601F074FE4B465851012003B0E2
:1033C0003CBC90469946A246AB46F0BD5A46012AFF
:1033D0002AD0802212011A601E4BAD00595999461D
:1033E0000029C8D123687F017B40E0271F4080234C
:1033F0005B0123431F605A462168514003220A4063
:103400001A6001225B469A40A3681A42FCD0C5E7C5
:103410000020D4E723687F017B40E0271F40802302
:103420005B0123431F60B9E702321A60023AA368C6
:103430001A42FCD023687F017B40E0271F40802395
:10344000044A5B0123431F609146AD00D3E7C046A9
:1034500000800040D81A002030B50C2083B000F066
:10346000B5F9FEF7ADF900280ED0944B944A1A60D6
:103470005A609A60DA601A615A619A61DA611A6276
:10348000904A5A6203B030BD8F4CA06700F0F2F949
:1034900001228E4B1A60636C012BFCD103228C4BF2
:1034A0001A60894A936B012BFCD101330093894A3E
:1034B00004330121884800F035F90523874A009339
:1034C0000121874800F02EF9864B5A68FF2A02D85E
:1034D000802252005A608022784C7D4B2169120173
:1034E000804D1A60002905D0606901F097FD013018
:1034F0000138FDD1E0217B4B02201A681140802267
:1035000052012A43116019684840032101401160AB
:1035100004219A681142FCD08022802192012A4322
:1035200009011160802252005A606F4B23616F4B7A
:103530005968FF2900D85A6003226C48634B012167
:103540001A60020093681942FCD0E02513681D4000
:1035500080235B0103431D6012684A400321114030
:1035600019600221614A93681942FCD080238021AE
:103570009B0103430901196080215D4B49005160A3
:1035800063615C4B5A68FF2A00D8596080225A4B0D
:10359000E1691201574D1A60002905D0606901F0F8
:1035A0003DFD01300138FDD1E02252490B681A403F
:1035B00080235B012B431A60802380229B012B43D5
:1035C00012011A6080223E4B52004A60E3614B4B6D
:1035D0005968FF2900D85A608022494B216A12019C
:1035E000464D1A60002905D0606901F017FD0130D1
:1035F0000138FDD1E02241490B681A4080235B016C
:103600002B431A60802380229B012B4312011A60F6
:1036100080235B004B602A4B3A4A23623A4B59683D
:10362000914201D801325A608022384B616A1201FE
:10363000354D1A60002905D0606901F0EFFC0130BA
:103640000138FDD1E02230490B681A4080235B012C
:103650002B431A60802380229B012B4312011A60A6
:103660008023DB024B60174B6362294B5A68FF2AA9
:1036700002D8802252005A608022264BA169120192
:10368000234D1A60002905D0606901F0C7FC0130A4
:103690000138FDD1E0221E490B681A4080235B01EE
:1036A0002B431A60802380229B012B4312011A6056
:1036B00080235B004B600E4BA361E3E6D81A002029
:1036C000006CDC021BB70000008000403CB00040F2
:1036D00030B00040002F685900800240008C8647BF
:1036E00000C0024030800040001BB7003C8000401A
:1036F000405973075480004054B00040608000403F
:1037000060B00040FFFF03006C8000406CB00040E0
:103710004880004048B00040014B8000C0587047CE
:10372000D81A0020F8B504000C201E0017000D0068
:1037300001F074FC4201121A9101891AC90009189A
:103740008901380001F06AFC069B226836041B03DD
:103750003343002A21DB194A194EA21851424A412B
:10376000802149018C4652420A40164962440A604F
:1037700015490A601700B1688F43FBD1C021221D93
:103780008901114321222560A0600A602268002A75
:10379000FCDAE36008230B60F8BD3F2221680A4091
:1037A000AA42D8D1A2681205120D8242D3D1EE21CD
:1037B000E268C9020A409A42CDD1EDE70040FDBF60
:1037C00000C0004000E0004000F000408023024ABA
:1037D0009B000343D36270470080054010B58024EE
:1037E0001B4BE4051C6000282BD00123194C184307
:1037F000194BDC61194C44401C625962986280216B
:10380000134BC9051960164816490860E021C90420
:103810001960002A04D18022134B12061A6010BDD1
:1038200053019B1A9B009A18104B12019A420BD815
:103830000F4B1A60084B5A6080220B4BD2051A605E
:10384000EDE7054BD861DAE7094A13601A00F1E7A2
:1038500000B00540D3C007B0008005402D3FF84FB1
:10386000FCFF01000820014000A00540FFFFFF0011
:1038700018200020AA23064A1B0113602F230549A4
:10388000D360054B19605368002BFCDA7047C046C3
:103890000040024000B0FA00006002407047C0469D
:1038A000F8B557464E464546DE46E0B599460A9B72
:1038B00007009A460D9B884693460B9E15009B0772
:1038C0000FD10C9B9E420CD29D1B0E005D44541CDC
:1038D0004B4631002020B8472200A542F7D1B04620
:1038E0000B9E002E28D04446AD195346AA1B013E1C
:1038F000985D21004B46B847002EF6D123002C00DE
:1039000098460D9B9B0710D55B46E51A0C9BAB4276
:103910000BD946462200984601344B463100202000
:103920000135B8472200A845F6D820003CBC904697
:103930009946A246AB46F8BD2C00E2E7F0B54F46EB
:103940004646D646C0B584B098460EAB1B78944622
:103950009946129B0D9C109F119E9A0724D4012218
:103960001A409246002E62D1BC420CD21F2C00D9C4
:10397000B8E00C9A551E302201E0202C03D001340F
:103980002A55A742F9D85246002A0DD0A6420BD993
:10399000202C5AD00C9A551E302201E0202C54D0F5
:1039A00001342A55B442F9D1DA0632D55A0555D434
:1039B000002C4FD10F9A102A00D18CE0022A00D19E
:1039C0007EE030220C9C22704A460124002A25D039
:1039D0002D220C9D2A55013403930C9B02960093D3
:1039E000019443466246FFF75BFF04B01CBC90465F
:1039F0009946A246F0BD202CEED00C9A1519013440
:103A000078222A70202CE7D030250C9A12191570D4
:103A10000134202CE0D04A46002AD9D15A0728D4B4
:103A20001A07D9D520220C9D2A550134D4E7002A43
:103A300024D04A46002A28D10C321A4225D1BC4251
:103A4000A4D21F2C95D9202E1DD92024DA06C3D547
:103A50005A0503D4A7421AD0B44218D00F9A102A9C
:103A60001FD0022ACED1202CB6D00C9A12190134C4
:103A70002EE02B220C9D2A550134ADE7BC4293D297
:103A80001F2C00D875E720248EE7013ED7E7621E81
:103A9000002A10D00F9D102D2DD0022D15D014000E
:103AA000B2E79A06A7D5202C96D058250C9A121961
:103AB00015700134A6E70F9C102C15D0022CEED106
:103AC00062220C9C227001249EE70C9DAA4652445F
:103AD0006225157096E79A06E7D478220C9C22702E
:103AE000012491E720244EE79A06F6D558220C9C33
:103AF0002270012488E7023C9D06D6D40C9D2D1926
:103B000014007DE710B5002800D110BD03F006FABF
:103B1000FBE7C04610B5002803D04A680B681100C7
:103B2000984710BDF0B5454657464E46DE46E0B5CF
:103B30009BB0249D259C82468846099299462A007E
:103B400023002800210001F046FD002800D0CBE032
:103B50000122D94B52422800210001F037FD0028F4
:103B600000D0C1E00122D54B52422800210001F0D3
:103B700017FD002800D0B7E0002200232800210014
:103B800001F00EFD002800D0EDE1AB460894802343
:103B9000289ADB001A40119201D1062326935B4636
:103BA0000C9380235946289A1B011A40089B1092B7
:103BB0000B4300D0AFE0002A00D0BFE104260D93F4
:103BC0000E930C9300230A93279BB34201D99B1BAE
:103BD0000A930227289B1F4005D0734273410A9A1B
:103BE0005B421A400A920C9B002B07D0584608995A
:103BF0000D9A0E9B01F073FC83460891002200236E
:103C00002800210001F0CCFC002805D0802000060F
:103C10008446089961440891289AA94B414613406B
:103C20005A4604930A9B50460393269B0293089B93
:103C3000009201934B46099A00F0A2F9002E63D03E
:103C4000289B02009C061F23E4179C436534431CF9
:103C5000089320004B464146D0470C9B0024DA17BE
:103C60009D18DB0F9B46731E55400C9302E0050028
:103C7000202C11D00AAA94461F23013463440A2140
:103C800028001E1901F0CAF93031317028000A21CC
:103C900001F0C4F9092DEAD8052306930C9B019481
:103CA0000593002304930A3303935B46029312ABFC
:103CB0000093089A4B4641465046FFF73FFE002FBF
:103CC00022D0099BC41A279BA3421DD90200574644
:103CD0001E00551C4B46414620200134B8472A009F
:103CE000A642F6D828000FE0289B2A000493279BC1
:103CF00041460393269B5046029323000092019372
:103D00004B46099A00F03CF91BB03CBC90469946E2
:103D1000A246AB46F0BD6B4A089B94465800400D46
:103D2000604401F06BFC684A684B01F0F6FB684A9E
:103D3000684B01F0CBFB089B674A1B031B0B1A4324
:103D400006000F000C981100644B002201F0B5FB37
:103D5000634A644B01F0E1FB02000B0030003900C4
:103D600001F0B4FB01F062FC0C9001F047FC5E4AEC
:103D70005E4B06000F0001F0D0FB00225C4B01F00F
:103D8000A5FB01F053FC5B4A5B4B0D903900300002
:103D900001F0C3FB06000D980F0001F02FFC574AFD
:103DA000574B01F0BAFB02000B003000390001F064
:103DB00084FB02000B000A900B9101F0AEFB0600A1
:103DC0000F000A980B9902000B0001F07FFB002204
:103DD0000E900F914B4B3000390001F080FB002218
:103DE000494B01F073FB02000B003000390001F079
:103DF00076FB0022454B01F069FB02000B0030000E
:103E0000390001F06CFB0A9A0B9B0F008021060021
:103E1000C905002001F051FB02000B003000390001
:103E200001F054FB3A4F02000B000E980F9901F07D
:103E300056FB0022284B01F049FBBC460D9A624418
:103E400016000022330501F068FB07000D900E00FC
:103E50000E9102000B005846089901F0A1FB0028C2
:103E60005ED13B003200C6260C9963318E42B641CA
:103E7000109976420436002900D1A3E6134361D09D
:103E8000089F244A244B5846390001F097FB00282C
:103E900007D00022214B5846390001F081FB002851
:103EA00050D1269B002B00D18CE6119B5A1E9341CA
:103EB000269AD31A269385E6FFFFEF7FFFFFEFFFD9
:103EC000FFF7FFFF01FCFFFFFB799F501344D33F37
:103ED000B3C8608B288AC63F0000F03F0000F83F5F
:103EE00061436F63A787D23F71A379094F930A405B
:103EF0000000E03F1655B5BBB16B0240EF39FAFE4A
:103F0000422EE63F00002C400000244000001840F4
:103F1000FF0300002D431CEBE2361A3F80842E4144
:103F20000C9B0022013B0C930D98144B0E9901F051
:103F3000D6FA03000D900A000E9194E700230D932A
:103F40000E930C93269B19000C9B994213DDCB1A00
:103F5000013B26938023289ADB001A4300232892F2
:103F600000260C932EE680231B069C46A444634641
:103F7000AB4608930BE600232693EBE700002440B2
:103F8000F0B5DE4657464E464546E0B597B080460A
:103F9000894692469B46209A219B1000190001F009
:103FA0001AFB002800D01FE2209821990122CC4B57
:103FB000524201F0F5FA002800D03EE12098219904
:103FC0000122C84B524201F001FB002800D0E7E07B
:103FD000209821990022C44B01F0F8FA002800D063
:103FE000C7E0209821990022C04B01F0D9FA00289F
:103FF00000D0BEE0209821990022002301F0D0FAE1
:10400000002800D0E1E0002380240D93249BE400ED
:104010001C4000D0E9E000220626B54B069207932B
:104020000EAB08932098219901F000FB07000C903B
:1040300001F0E4FA02000B002098219901F03DFA0A
:10404000069A079B01F069FA0A900B9101F012FBA6
:104050000500099001F0CEFA02000B000A980B99B6
:1040600001F02BFA0022A34B0A900B9101F0AEFA5B
:10407000002800D148E12B0001331800099301F01A
:10408000B9FA069A079B01F099FA002804D03B0080
:1040900001330C9300230993002E00D0D5E00C9D32
:1040A000280001F0ABFA02000B002098219901F0E2
:1040B00004FA00228F4B06000F0001F071FA00286D
:1040C00008D100228B4B3000390001F07FFA002824
:1040D00000D17EE1202C00D1FAE00C9F0A213800AB
:1040E00000F074FF089E3031315538000A21651CFC
:1040F00000F06CFF002800D180E1202D00D1E7E026
:104100000A2100F063FF303171553800642100F05E
:104110005DFF0234051E14D0202C00D1D8E008AA7F
:10412000944617232800634401340A211E1900F025
:104130004DFF3031317028000A2100F047FF051E85
:10414000EAD10323249A1340012B00D1ECE0202C68
:1041500000D1C2E00D9B002B00D111E12D23089A64
:10416000651C1355249B01950393239B0293089B85
:1041700020E0249B52460493239B49460393229BB1
:1041800040460293209B219C009301945B46FFF7DD
:10419000C9FC17B03CBC90469946A246AB46F0BD60
:1041A000249B5B070ED40322534B24990192039165
:1041B00023990291009352465B4649464046FFF7D9
:1041C0006FFBE6E74D4B0422EFE7209A219B00208E
:1041D000002101F072F9012380240D93249BE40057
:1041E000209021911C4000D115E7229B092B00D87B
:1041F00008E1190030230EAA4E1E08921370092EF2
:1042000000D1F9E0537008AA0C0094468E1E1721C5
:10421000093C02236144302205E00133CA54013EC7
:10422000202B00D1A3E09C42F7D1354BF2009B1824
:104230001A685B6806920793F4E6249B0393239B1A
:104240000293042301932F4BB4E7202C40D0099D07
:10425000731E0A212800069300F0E0FE089B30310F
:10426000195528000A2100F0D9FE671C0995092D6F
:1042700000D892E0202F2BD0B11E06910A2100F029
:10428000CDFE089B3031D9550998642100F0C6FE57
:10429000099AA51C0700632A00D87FE03419013C65
:1042A00014E0631B08AA0693944617230135634460
:1042B0000A2138005E1900F0B1FE3031317038004B
:1042C0000A2100F0ABFE092F68D90700202DE8D1A4
:1042D0000323249A1340012B25D0202542E7C04612
:1042E000FFFFEFFFFFFFEF7F65CDCD4165CDCDC176
:1042F00080842E410000E03FC01C0110C41C01104E
:10430000D81C0110D01C011000220A980B99494BAF
:1043100001F046F9002800D0BEE62B1E60D1099BB3
:1043200001330993B8E62024239B002B00D10EE72C
:104330000D9B002B03D1249A0C33134202D0239BF4
:10434000013B2393239BA34200D800E708AA94468D
:10435000172330226344202CBFD0239901341A55EF
:104360008C4200D1F3E6202CF7D12025FAE6324B1F
:10437000F2009B185C681B6806930794202451E6A2
:10438000249B5B0720D4249B25001B0700D4E9E66F
:104390002023089A01351355E4E63D00202D97D0DF
:1043A00008A98C4617230698634442193021002837
:1043B00026D001355955202D30D0AA42F9D12E23CF
:1043C0000899541C8B5485E62B23089A651C1355B9
:1043D000C8E60123AC462B409C4463460C9379E627
:1043E000DB0700D458E69AE7249B0393239B0293B0
:1043F00003230193114BDDE6012416E72C00A0E610
:104400002A00DCE7DA001E000B4B9B185C681B6877
:10441000069307940EAB0024089303E60323249A23
:104420001340012B00D09DE6239B002B00D199E681
:1044300020247DE70000E03FD81C0110CC1C0110B7
:10444000F0B54546DE4657464E46E0B5A1B01D00E4
:104450002A9B90460B93BD4ABD4B0A908B461A602F
:10446000002900D10DE2002328789A46002861D067
:10447000B84B56469946C24609E0741C3200534672
:104480000A9E5946B04726002878002850D00135AA
:104490002528F2D1042328789846023B9C46030045
:1044A000203B691CDBB200240A00102B0ED84F46BB
:1044B0009B00FB589F4601230D001C432878691C74
:1044C0000300203BDBB20A00102BF0D90300303B85
:1044D000092B41D900272A286AD000230C932E28C3
:1044E00051D00300683BDBB2122B5FD89A499B0086
:1044F000CB589F4663460D001C43DFE743460D0043
:104500001C43DBE710230D001C43D7E708230D00F5
:104510001C43D3E780235B0068781C43551C0300D1
:10452000253BDBB2532BA8D88C4A9B00D3589F461F
:10453000D046B2465246D04501D843465A1E43465D
:10454000594600200A9CA047504621B03CBC9046EA
:104550009946A246AB46F0BD0027030001E00D00DE
:104560000131B800C0194000C0180B7830381A006B
:10457000303A0700092AF2D918000023AA1C0C932C
:104580000D002E28ADD180236878DB001C4303008A
:10459000303B092B00D877E12A2800D1ABE103009A
:1045A000683BDBB215000132122B9FD91500B6E72C
:1045B0000B9B80CB002F00DA5BE16878AA1C0B9381
:1045C0000D008AE768786C2800D14DE280235B00FB
:1045D0001C43551CA3E780239B0068781C43551C93
:1045E0009DE76878682800D139E28023551C1C4378
:1045F00095E70B9B04CB98460C9B0B921078002BF5
:1046000000D0A2E1002801D100F071FC02235B423E
:104610005A1C0B9B944619000D92614401E08B4299
:1046200006D001331A78002AF9D10B9A9B1A0D9300
:104630008023DB0023400E9305D00D9B19000C9BBB
:10464000994200D90D93022323400F9300D140E2F9
:10465000002800D126E20E9B002B00D1E6E1414666
:104660000C9B0C9129009C190B9B5D469B1B3200F7
:10467000B8460B938B460AE0534629000A9F561C06
:10468000B8470B9B985D002800D104E232009442A9
:10469000F2D10C9B474698465B462600AB461D0070
:1046A0000F9B002B00D0FDE143460B93ECE60B9BE8
:1046B00004CB0B93002A00D128E121231C43A446FC
:1046C00010A988461F240F2144440023884603E094
:1046D000202B00D124E10A0041461140CFB238001E
:1046E0003730092900D807380133E05411090F2A5F
:1046F000EED815E10B9B04330C93731C0D93984675
:10470000A30700D406E20B9B3200187859465346A3
:104710000A9CA047BE19012F00D8A7E22B004246F1
:104720005546B0469A465E460A9F541C2B003100FF
:104730002020B84722004445F7D15346B346AA4645
:1047400026001D000C9B0B939EE6C04641440010C2
:1047500014200020E01A0110241B0110701B01100E
:10476000782800D152E2582800D183E16F2800D187
:10477000F3E0622800D156E3102322009A438023FD
:10478000DB000D922340692800D0BCE30A220E9280
:10479000002B00D146E201230D9A9A430D9280240A
:1047A0000D9BA40023409C46692800D1E7E06428C3
:1047B00000D1E4E06346002B00D094E280230D9A00
:1047C0005B001A400B9B904604330F93002A00D0E5
:1047D0002CE30D9B5B0600D544E20D9B1B0600D429
:1047E00088E30B9B1B881800031E00D04DE20D9A36
:1047F0001033110099430D91520500D445E2002376
:1048000098460D9B059706930C9B04930E9B039370
:10481000002302934346019318AB009332005346A2
:1048200059460A98FFF78AF80F9B06000B932BE670
:10483000462800D18EE007220B9B04940733934354
:1048400019000C9A039702920CC90A9800920193DE
:104850000B91320053465946FFF792FB060013E6D0
:10486000741C320053460A9E59462520B047260044
:104870000AE60222687814437F42AA1C0B930D00BB
:104880002BE6D34B0A93EEE50023010000E02A005B
:104890009800C018400040185178030008003038D4
:1048A000551C303B0928F2D90C930800023218E657
:1048B000202302009A43472A04D180231B011C4372
:1048C00002239843452801D120231C4307220B9B38
:1048D00004940733934319000C9A039702920CC96E
:1048E0000A98009201930B91320053465946FFF704
:1048F00019F90600C8E50B9BA87802CBCA43D2176A
:1049000011400C91EA1C0B930235EAE510232100BB
:104910009943113319438C460023610500D4CFE637
:1049200062460692082205920C9A04921022039283
:1049300000220292019318AB00933200534659466D
:104940000A98FEF7FBFF06009EE5002800D1CDE2A5
:10495000013B5DE620231C436DE708230E932200F4
:104960000D948023DB001340642800D0CEE2002B9E
:1049700000D010E780241300A40023409C46634627
:10498000002B00D0E5E080230D9A5B001A400B9BC2
:10499000904604330F93002A00D0C6E10D9B5B06BE
:1049A00000D547E10D9B1B0600D499E20B9B00222A
:1049B0009B5ED9175A184A401000DA0F1492002B48
:1049C00009D1802310220D99DB000B4091430D91FA
:1049D000002B00D050E10D9A6123920600D54123AF
:1049E00010AA1F249446DBB264440A3B159716961E
:1049F0000B9346460700A84625000E9C0AE030337C
:104A0000DBB20136AB55A74200D231E1202E00D1F6
:104A10002EE107002100380000F000FBCBB209298D
:104A2000EDD90B9A94466344DBB2EAE70B9B320064
:104A30009E1B33005E46AB4655469A460B970A9F2F
:104A40002B003100541CB8475346185D2200002843
:104A5000F6D1AA460B9F5D46B346260020E6C0234A
:104A6000A8781C4303355AE5C0239B00A8781C4353
:104A7000033554E50C2322009A4314331A430D9254
:104A8000630500D5D3E080239B001C40F13BFF3B36
:104A9000A4460E938EE60C9B474698465B46AB4673
:104AA0001D00FDE50D9B32009F4200D8FCE5BE19BC
:104AB000F61A2B005D469B460A9F541C534629005C
:104AC0002020B8472200B442F7D15B46AB461D0018
:104AD000EAE50D9A531C974200D812E2BB199B1AC3
:104AE0000D971F0032005E46AB460A9D541C53468C
:104AF00031002020A8472200BC42F7D15D46B346D2
:104B000026000D9F7B1C0D930B9B1878002800D06E
:104B1000A1E5C9E5012F00D8F0E1731E3200A846D7
:104B2000DF190A9E5D460D9C00E0013453462900C2
:104B30002020B0472200BC42F7D12600AB464546B4
:104B400001360B9B3A001878594653460A9CA047F9
:104B5000F8E507220B9B07339343013294469C44AC
:104B600062460B921A685B689C46DB17129313939C
:104B70001298139903005340109364460B0063404E
:104B80001193109B119C1B1A8C4110931194634636
:104B9000DB0F149363461A4350D00D9A612392069B
:104BA00000D541230022DBB2904610AA0A3B1F2405
:104BB00094460F935B46644417932300159716960B
:104BC000AB46109E119F44460E9D984610E0C0468D
:104BD0009D3800103032D2B2434601341A550023BA
:104BE000BB4200D167E1202C00D167E106000F0035
:104BF0002A0000233000390000F052FAD2B2092A0C
:104C0000E8D90F9B9C466244D2B2E5E7802310228C
:104C1000DB0023400E920C2294430D94002B00D114
:104C2000BDE5B8E580239B001C40A446A7E6102301
:104C30000E93B0E50B9B1B781A00BDE60D9A10236E
:104C4000110099430D915205A7D5002398460D9B5D
:104C5000059706930C9B04930E9B0393149B02935E
:104C6000434667E60B9B1B781800BDE50D9E69E582
:104C70004546159FB046169E0D9B059706930C9BC7
:104C800004930E9B0393149BC3E50D9A6123920634
:104C900000D5412310AA1F249446DBB264440A3B8A
:104CA000149715960B9346460700A84625000E9CC0
:104CB00008E03033DBB20136AB55A7420ED3202ECD
:104CC0000CD007002100380000F0A8F9CBB2092968
:104CD000EFD90B9A94466344DBB2ECE74546149F48
:104CE000B046159E8DE507220B9B07339343013297
:104CF00094469C4462460B921A685968130010004F
:104D000009910B435CD10D9A1033110099430D9119
:104D1000520555D5002398460D9B059706930C9B8D
:104D200004930E9B0393002399E70B9B1B68D917F1
:104D30005A184A401000DA0F1692002B08D180232F
:104D400010220D99DB000B4091430D91002B2CD1CB
:104D50000D9A6123920600D5412310AA90461F2484
:104D6000DBB244440A3B14971596A8460B932500E2
:104D7000070066460E9C08E03033DBB20136AB55C7
:104D8000A7420ED3202E0CD007002100380000F0DF
:104D900045F9CBB20929EFD90B9A94466344DBB2AB
:104DA000ECE74546B446149F159E0D9B0597069368
:104DB0000C9B04930E9B0393169B029363462AE578
:104DC0000D9A6123920600D541230022DBB2904662
:104DD00010AA0A3B1F2494460F935B466444149721
:104DE0001596AB4646461693A0460E9D099F0400B5
:104DF0000BE03032D2B2434601369A550023BB4213
:104E000065D0202E65D004000F002A00002320006A
:104E1000390000F045F9D2B2092AEAD90F9B9C4625
:104E20006244D2B2E7E702230E9398E50B9B1B681E
:104E3000181E08D1802310220D99DB000B409143EE
:104E40000D91002B2CD10D9A6123920600D54123A0
:104E500010AA90461F24DBB244440A3B14971596CF
:104E6000A8460B932500070066460E9C08E03033E9
:104E7000DBB20136AB55A7420ED3202E0CD0070073
:104E80002100380000F0CAF8CBB20929EFD90B9AFB
:104E900094466344DBB2ECE74546B446149F159E46
:104EA0000D9B059706930C9B04930E9B0393002385
:104EB00002936346AFE4B54200D894E6179B109680
:104EC00011975D46159F169EA0469B46BFE6A542DC
:104ED00097D9169BB0465D46149F159E9B461BE7CF
:104EE0000B9B1B68D9175A184A4065E500230D93A0
:104EF000FFF79EFB0B9B1B68180075E437000D9EA7
:104F00001FE60D9302E60A230E932AE5140082E6BB
:104F100000B585B00391012102900093034813006E
:104F20004A4202A9FFF78CFA05B000BD153B0010FC
:104F300010B5094A84B01468002C09D001220091F0
:104F40000300524203A90548A047012004B010BD48
:104F500002F036F80020F9E714200020053B00108D
:104F600001480421014B184700060020914F001012
:104F7000142310B50100188804331B88984710BD0E
:104F8000162310B50100188802331B88984710BDFE
:104F9000F0B5C64600B5002916D01423040001253B
:104FA00098461827890046184346216818883B8888
:104FB000984701C4431E984140420540A642F3D1A0
:104FC000280004BC9046F0BD0125F9E7124A936F12
:104FD0009B0815D29066D166002905D0FFE7FFE750
:104FE000FFE7516F106F704704B580210906C217A3
:104FF0005140002800D0C8430CF06EFB002104BDD6
:10500000F0B5146E556E576F166FFFF7E3FF146619
:10501000556657671667F0BD000000D0114A936FC0
:105020009B0813D210665166002905D0FFE7FFE701
:10503000FFE7516F106F704704B5002801D00020C2
:10504000C0430CF049FB002104BDC046F0B5146E0E
:10505000556E576F166FFFF7E5FF14665566576775
:105060001667F0BD000000D094464E4A926F920839
:10507000624601D230E0C046F0B54A4EB56F6D08C9
:10508000FCD3346E756E776F366F00F025F894465A
:10509000444A14665566576716676246F0BDC046B7
:1050A0009446404A926F9208624601D258E0C04648
:1050B000F0B53C4EB56F6D08FCD3346E756E776FEE
:1050C000366F00F04DF89446364A146655665767B9
:1050D00016676246F0BDC046002B24DB11D00029C4
:1050E0003EDA00B5C943404200D1013100F038F842
:1050F000C943404200D10131DB43524200D1013368
:1051000000BD002AEBD1002801D1002905D00020E4
:10511000C90FC90701D1C043410800B50CF0C4FA5A
:105120000022002300BD00B500290ADBDB43524208
:1051300000D1013300F014F8C943404200D10131DD
:1051400000BDC943404200D10131DB43524200D18E
:10515000013300F005F8DB43524200D1013300BDBA
:10516000002923D1002B18D1002A0CD0BC460D4FAA
:1051700038667A6600210023FFE7FFE7FFE77A6FD2
:10518000386F67467047002801D00748010000B516
:105190000CF08AFA0022002300BD02000B00002060
:1051A00000217047000000D0FFFFFFFF002B00D060
:1051B000BFE0130C28D1002AE7D080B4114F396624
:1051C0007A66FFE7FFE730B4040C7B6F396F1B048E
:1051D00023433B667A66FFE7FFE7FFE7C04684B2FA
:1051E0007B6F3D6F1B0423433B667A66FFE7FFE757
:1051F000C04600232C042D0C7A6F386F00196941CA
:10520000B0BC7047000000D0F0B594460025140EE5
:1052100001D112020835140F01D112010435940F87
:1052200001D192000235D40F01D152000135D40BC7
:105230000134254F7C66254C3C660E0C93B2FFE78B
:10524000FFE7FFE73C6F6643360C7703BE467343C8
:10525000DF0B5B04C01AB941130C7343DB18C91A86
:10526000CE086643360CB64493B273431F0F1B013E
:10527000C01AB941130C73431F0B1B05C01AB94167
:10528000860D8F023E436643360C092D24DB520AFD
:105290007243801A7703460A6643360C16235B1B5B
:1052A000DE40DF40BF1964466643821B704604350A
:1052B00006330100D940A840C01900D30131A242F1
:1052C00006D20023F0BD0000000000D0FFFFFFFF6A
:1052D000121B0130F3D3F1E709277F1BFE40644620
:1052E000A2B27243801A00D20139220C7243130C0D
:1052F0001204821A99410B007046043513370100DD
:10530000F940A840801900D30131002B02D1A242FC
:105310000AD2F0BD013000D30131121BFAD2013B99
:10532000F8D1A24200D2F0BD013000D30131121BEE
:10533000F7E7F0B51C0C00D080E00CB400251C0A87
:1053400004D11B02160E3343120208351C0B04D184
:105350001B01160F3343120104359C0B04D19B0033
:10536000960F334392000235DC0B02D192185B4159
:1053700001351C00971864410134464F7C66464C49
:105380003C660E0CFFE7FFE7FFE7C0463C6F664355
:10539000360C7703BE4697B27743C01B00D2013963
:1053A000C01B00D201399FB27743C91BC91B170C20
:1053B00077437E04FF0B801BB941CE086643360C51
:1053C0000C2D33DBB644120B1F053A431B0B97B26F
:1053D0007743C01B00D201399FB27743C91B170C1A
:1053E00077433E043F0C801BB941860D8F023E433C
:1053F000664329277F1BFE400C3D7746AF40BF190F
:1054000030BCA2B2ABB272437343801A9941220CF2
:105410007243130C1204801A994102000B000137E9
:10542000001BA941F9D2781E0021F0BD0C277F1B7B
:10543000FE4077467F0BAF40FF19E0E700245D1C7C
:1054400007D0144F7D663966FFE7FFE7FFE7FFE708
:105450003C6F95B29EB265436643401BB141150C4B
:105460001E0C6543664336042F0C3E432D04401B3F
:10547000B141994204D202000B0020000021F0BD8E
:1054800001D19042F7D3801A994101349942F2D365
:10549000F6E70000000000D0FFFFFFFF44464D4646
:1054A00056465F46F0B47047F0BCA046A946B246E7
:1054B000BB46704748404140484018B41B4B5B68AE
:1054C000FC46019308BD04DF6B5D001018B4174B58
:1054D0001B68FC46019308BD00DF755D0010944613
:1054E000134A926F920809D2624618B40F4BDB68D8
:1054F000FC46019308BD0CDF2D6000100C4AF0B58E
:10550000146E556E576F166F6246FFF7EEFF084A2E
:105510001466556657671667F0BD18B4034B9B6851
:10552000FC46019308BD08DFD15E0010782A0020F8
:10553000000000D0FFB550404240504059404B4021
:10554000594000E0FFB5154F4C00640D03D0BC423C
:1055500004D10C0314D80020090D09055C00640D6A
:1055600003D0BC4204D11C030AD800221B0D1B052A
:1055700001264B4009D44B4003D58B4200D18242D7
:10558000FFBD9942FCD19042FFBD0B43DB180343A2
:105590001343F5D0C9434918FFBD0000FF070000C1
:1055A00000B5FFF7CFFF804100BDC04600B5FFF753
:1055B000C9FF01D9002000BD012000BD00B5FFF7E3
:1055C000B9FF01D9002000BD012000BD00B5FFF7E3
:1055D000B1FF804100BD012040054A00121804D8E7
:1055E0005A00121801D8002070470120704700208F
:1055F000704700000021002805D17047C1174840BE
:10560000401AFAD0C90713B5064B1B6898470CBC63
:10561000441CA2401005120B0349091B090519433C
:10562000114310BD982000201F04000010B54C004D
:10563000620D8023D218DB00D21A5B057E2A10DDB2
:105640009E3A13DACC170903490819435242D14054
:10565000640001341532202A05DAD0400843604343
:1056600010BD002010BD0846604310BDC80FC01813
:10567000013810BD18B4044B5B6AFC46019308BDA9
:1056800024DF096400100000782A002018B4044BBD
:105690001B6EFC46019308BD60DF1765001000001B
:1056A000782A002018B4044B5B6EFC46019308BDB9
:1056B00064DF0D6500100000782A002018B4044B48
:1056C000DB6FFC46019308BD7CDFA1640010000085
:1056D000782A002018B4044B9B69FC46019308BD4E
:1056E00018DFF96100100000782A0020024A034BFD
:1056F00000B500F019FB00BD182D4454FB211940E2
:105700008A0002D3920D092A08DA18B4064BDB6B23
:10571000FC46019308BD3CDF4B66001000B5FFF767
:10572000E5FF04BC9646F0E7782A00208A0002D301
:10573000920D092A08DA18B4064B1B6CFC4601933B
:1057400008BD40DF5B66001000B5FFF7CFFF04BC6B
:105750009646F0E7782A002018B4044B9B6DFC466F
:10576000019308BD58DF496700100000782A002027
:10577000132370B51D78012D15D010DD2648FFF7D5
:10578000FFFB264C01008022200001F063FA022D6D
:1057900006D02348FFF7ECFB224B186070BD1F4C6E
:1057A000214AA264F5E71D4C1F4AA3085B421D4035
:1057B0002FD02B0022602020A9006118451B0A6011
:1057C0004A608A60CA600A614A618A61CA610A6283
:1057D0004A628A62CA620A634A638A63CA630A6463
:1057E0004A648A64CA640A654A658A65CA650A6643
:1057F0004A668A66CA660A674A676D08102D03D131
:105800008A67CA67A264C4E71E339B00E250A264A1
:10581000BFE70023CFE7C04653440000782A0020AA
:105820004C33000098200020395D0010254A4B00C1
:1058300094465B0D6344F0B55A1C24DB5A1C3AD0E5
:105840003422D21A002A1DDD3324E41A20235B42BD
:10585000E5181ED40126AE4033000126A6403200D2
:1058600012184B41002D20DB0226AE4031000225EC
:10587000A54028001600002544428D4126402B40BB
:1058800030001900F0BD0022C90FCB07100019002D
:10589000F8E720260127361BF7400126A6403B00EB
:1058A000320012184B41002DDEDA202502262D1B76
:1058B000EE403100DBE7CB0F034ADB071A43002041
:1058C0001100DFE701FCFFFF0000F03FF8B5020028
:1058D0000B0004000D0000201049FFF7EEFD002230
:1058E00006000F000D4B20002900FFF7EFFD0B0015
:1058F000020039003000FFF710FE4B005B0D01D0B5
:10590000002908DBFFF7E6FE02000B00200029005B
:10591000FFF722FFF8BD00200149FBE70000F03F40
:105920000000F07FF0B55746DE464E464546E0B5EE
:105930005C00640DA246574C94464A0087B0520D55
:10594000A24265D05446002C62D0CC0F0394002AAA
:105950000CD1002C5FD1002400252000290007B0C5
:105960003CBC90469946A246AB46F0BD04000D00F3
:105970005245F2DB802009031B0340031B0B090B7C
:105980000143184353460D006146D31A009101901C
:105990009846002B62DD011101204042FFF73EFBDB
:1059A000834616E022009A40170023004A4693409F
:1059B0001E00009A019B4810C91700F0CFFF434614
:1059C0004A4634003D009B1A241A8D419846002B0C
:1059D00025DD4346C1460C2B01DD0C2399465B4671
:1059E000A91159434A461D239B1A202219414B46AF
:1059F000524201319B18D5D54A4620239B1A2200DA
:105A0000DA40484613002A00824017001F43CCE7C3
:105A10000024214DA1E7802500242D069DE7019B50
:105A2000AB4226DD002D07DA009A019BA4185D41E8
:105A3000002D01DAA4185D41039B002B04D0220045
:105A40002B00002554429D415346144A2000290052
:105A5000D21AFFF71BFE04000D007EE7009A019B9F
:105A6000AB42E9DCAB4211D0009A019BA41A9D41E4
:105A7000E2E7009A019BAB4201D1A242D2D8009A40
:105A8000019BA41A9D41AB42ECDDD5E7009BA342EC
:105A9000EAD9D1E7FF0700000000F07F33040000DF
:105AA000F0B5DE46574645464E46E0B59B465B00A0
:105AB0005B0D89B09A46129B4D0004006D0D002BC2
:105AC00002D01E0000233360944B9D4200D1ADE014
:105AD0005646002E00D1A9E0002D00D1A9E09A453C
